:020000040800F2
:10000000B825002061020008253A0008BD3200082A
:100010001D370008E51400086948000800000000CA
:100020000000000000000000000000003147000850
:10003000F514000800000000B1440008154800084D
:100040007B0200087B0200087B0200087B0200089C
:100050007B0200087B0200087B0200087B0200088C
:100060007B0200087B0200087B0200087B0200087C
:100070007B020008E91400087B0200087B020008EC
:100080007B0200087B0200087B0200087B0200085C
:100090007B0200087B0200087B0200087B0200084C
:1000A0007B020008394800087B0200087B02000838
:1000B0007B0200087B020008454800087B0200081C
:1000C0007B0200087B0200087B0200087B0200081C
:1000D0007B0200087B0200087B0200087B0200080C
:1000E0007B0200087B0200087B02000800F002F897
:1000F00000F0A6F814A696E8000CB244B344DA4522
:1001000001D100F09DF8BAE80F000FA696E8300084
:10011000A5EB040504EB0607AAEB0704A7F101070A
:100120004FEA15154FEA3414A4F10104AC4201D38F
:1001300000F086F813F0010F18BFFB1A43F001031B
:1001400000F001F8DBE7184700840000208400007D
:10015000103A24BF78C878C1FAD8520724BF30C8F3
:1001600030C144BF04680C60704700007047000055
:100170000023002400250026103A28BF78C1FBD8B0
:10018000520728BF30C148BF0B6070476E2900F08E
:10019000AF81702900F0F182662907F0C3856529D7
:1001A00007F0C085672907F0BD85612907F0BC8588
:1001B00003681B0A28BF41F08001692900F05C81B7
:1001C000642900F05981752900F056816F2900F0EB
:1001D0007F82782900F0BD82E92900F01982E429A4
:1001E00000F01682F52900F01382EF2900F07C82DE
:1001F000F82900F0BC820368DB0928BF41F08001C8
:10020000632900F0EF87732900F0F487E32900F0F9
:10021000FF87F32901F00480002070471FB501F02B
:1002200055F804000020002107F0B8F8401C606079
:100230000020002107F09CF8E0601FBD10B510BD44
:1002400001F016F81146FFF7E9FF04F00FFB01F08B
:10025000F3F803B4FFF7F2FF03BC01F03BF9000031
:100260000948804709480047FEE7FEE7FEE7FEE74A
:10027000FEE7FEE7FEE7FEE7FEE7FEE70448054986
:10028000054A064B7047000035480008ED0000089D
:10029000B81F0020B8250020B8210020B821002078
:1002A0001CB50C46064B7B4469460090204600F086
:1002B00038F904460020694600F046F920461CBD86
:1002C0009F020000032A40F2308010F0030C00F07F
:1002D000158011F8013BBCF1020F624498BF11F880
:1002E00001CB00F8013B38BF11F8013BA2F1040239
:1002F00098BF00F801CB38BF00F8013B11F00303B1
:1003000000F00A83083AC0F0088051F8043B083A2C
:1003100051F804CBA0E80810F5E7121D5CBF51F8B6
:10032000043B40F8043BAFF30080D20724BF11F830
:10033000013B11F801CB48BF11F8012B24BF00F895
:10034000013B00F801CB48BF00F8012B704702F0D9
:10035000FF0343EA032242EA024200F002B84FF0F0
:10036000000200B5134694469646203922BFA0E805
:100370000C50A0E80C50B1F12001BFF4F7AF090711
:1003800028BFA0E80C5048BF0CC05DF804EB890002
:1003900028BF40F8042B08BF704748BF20F8022B45
:1003A00011F0804F18BF00F8012B7047704770475D
:1003B000704770B5044685690068C10601D53026CE
:1003C00000E02026C00707D070BDD4E901213046E7
:1003D0009047206A401C20626D1EF6D570BD70B536
:1003E000044685690078C00707D170BDD4E90121B2
:1003F00020209047206A401C20626D1EF6D570BDFB
:1004000009684A0501D540B27047C905FCD500B25C
:10041000704709684A0501D5C0B27047C905FCD5C7
:1004200080B2704770B50C460546012A05D0287881
:10043000800600D5EA69002302E0012305E05B1C89
:10044000934202D2E05C0028F9D1A869E618C01AEC
:10045000A861286A184428622846FFF7AAFF04E02A
:10046000D5E9012114F8010B9047B442F8D328468E
:10047000FFF7B5FF70BD00002DE9F04106460024EE
:1004800010687529314616A510D0FFF7B9FF00286E
:1004900002DA404213A507E031688A0701D512A5A8
:1004A00002E0490704D511A5012401E0FFF7B1FFDF
:1004B00000210A2206F1240709E0B0FBF2FCB0FBA0
:1004C000F2F302FB1C00303078541846491C002817
:1004D000F3D123462A463046BDE8F04100F093BAF6
:1004E000000000002D0000002B0000002000000094
:1004F00011680268006A530501D508700AE0D30547
:1005000001D5088006E0130603D5C217C1E9000231
:1005100000E008600120704701694A1C0261087808
:10052000704700B58FB0CDE9013100210591054933
:100530007944CDE903101146684600F029F90FB05F
:1005400000BD0000E5FFFFFF0A6802F8010B0A602A
:10055000704700002DE9FF5F15468A460446DFF824
:10056000AC80F8440027D8E900103E46CDE90010E1
:1005700010E03AF816106A4602A800F055FE411C39
:1005800007D02178890603D5E269391891420DD840
:100590000744761C2078800602D5E069B84205DD64
:1005A000AE42E6DB3AF816000028E2D1A069C01B93
:1005B000A0612046FFF7FDFED8E90010CDE900104C
:1005C000002017E03AF818106A4602A800F02CFE46
:1005D000B0F1FF3F81460BD000250DF1080B05E07F
:1005E000D4E901211BF8050090476D1C4D45F7D358
:1005F00008F10100B0428046E4DB206A3844206202
:100600002046FFF7ECFEBDE8FF9F0000C677000024
:100610002DE9F0418046D21D22F007020025D2E9E3
:100620000002F52915A614D0011E72F1000106DAA8
:100630000023D0EB030063EB020211A608E0D8F818
:1006400000108B0701D50FA602E0490701D50EA6C1
:1006500001251146002408F1240704E000F08EF97A
:1006600030323A55641C50EA0102F7D12B4632462B
:1006700021464046BDE8F04100F0C5B90000000049
:100680002D0000002B0000002000000030B40021ED
:1006900000F1240408E002F00705D208303542EAF0
:1006A0004372DB086554491C52EA0305F3D1046820
:1006B000002310A2250708D504F020040C4304D021
:1006C000C46901230CA2641EC46130BC00F09BB954
:1006D00010B5044621461068FFF79BFE02462046EF
:1006E000BDE810400023D1E7D21D22F00701D1E977
:1006F0000023CBE70000000030000000F0B40D46FE
:100700000188090502D5214C7C4402E01F4C7C4441
:100710000E34002100F1240608E002F00F07120950
:10072000E75D42EA03721B097754491C52EA03074A
:10073000F3D102780023120704D5702D06D009B139
:10074000022311342246F0BC00F05DB901231034BD
:10075000F8E770B504460D4621461068FFF759FECC
:10076000024629462046BDE870400023C6E7D21D58
:1007700022F00703D3E90023C0E70368126843F0BF
:10078000200303600823C3610023B7E72876000035
:100790002DE9F05F894604464FF0000ADFF874B196
:1007A000FB44C0F820A02046E1688847002874D0A8
:1007B000252806D0D4E901219047206A401C2062F8
:1007C000F1E700265F462046E16888472028054675
:1007D00007DB312D05D2781910F8200C08B106433B
:1007E000F1E7B00701D526F00406C4F81CA00027E5
:1007F000C4F818A02A2D09D0284606F0B1FD38B358
:1008000004EB8708303DC8F8185019E059F8041B6C
:10081000204604EB87029161E1688847012F054675
:1008200018D1E069002820DA26F020061DE0D8F86B
:10083000180000EB800005EB40003038C8F81800C5
:100840002046E1688847054606F08AFD0028EED17B
:10085000012F0AD02E2D08D12046E16888477F1C41
:100860000546022F46F02006C4DBA069002803DA03
:10087000404246F00106A061F00701D026F01006C4
:100880006C2D0BD0682D09D04C2D39D06A2D35D068
:10089000742D35D07A2D33D016E038E0E1682F463C
:1008A00020468847B842054609D16C2F26D04FF420
:1008B0008060E168064320468847054604E06C2FC7
:1008C0001AD04FF4807006430DB3A5F141001928EA
:1008D00002D8203546F400664A462946204626605E
:1008E0004E46FFF753FC80B101280BD0F61D26F0D1
:1008F000070000F1080956E74020E4E78020D8E728
:100900000020D6E706F104094DE7284652E7206AA1
:10091000BDE8F09FB875000010B5203AC0F00B801C
:10092000B1E81850A0E81850B1E81850A0E81850E5
:10093000203ABFF4F5AF5FEA027C24BFB1E818505B
:10094000A0E8185044BF18C918C0BDE810405FEABD
:10095000827C24BF51F8043B40F8043B08BF704739
:10096000D20728BF31F8023B48BF11F8012B28BF3E
:1009700020F8023B48BF00F8012B704730B5B0F1BA
:100980000A0271F100034FEA900E4EEA817EB0EB4D
:100990000E0061EB91014FEA101E4EEA017E10EB52
:1009A0000E0041EB11114FEA102E4EEA016E10EBD2
:1009B0000E0041EB11214FEA104E4EEA014E10EBB2
:1009C0000E0041EB1141401841F100014FEAD00007
:1009D00040EA41704FEAD1014FEA810444EA907441
:1009E00010EB800544EB01046D1944EB0404521B29
:1009F000A3414FF0000348BF0A3200D530BD401C70
:100A000041F1000130BD2DE9F0470D46994692466F
:100A1000044600F124080168880604D5E06921F045
:100A20001001216000E00120A84201DD471B00E029
:100A30000027A1697A1902EB0900081AA061207841
:100A4000C00602D42046FFF7B4FC002608E0D4E933
:100A500001211AF806009047206A401C761C20628B
:100A60004E45F4DB2078C0060AD52046FFF7A1FCEE
:100A700006E0D4E9012130209047206A401C206222
:100A8000381EA7F10107F4DC07E0D4E9012118F8CA
:100A900005009047206A401C2062281EA5F1010530
:100AA000F3DC2046FFF79BFC2078000602D50220ED
:100AB000BDE8F0870120FBE72DE9FF4F0C461E46FD
:100AC0004FF0FF378BB0D2E90001DDF860800A906B
:100AD0008A46C1F30A5505B93D46002108464FF044
:100AE0000000BAF1000F00F4400005DA00EB8000CE
:100AF0004FF4400101EA50004FEA9059B9F1010F5B
:100B000000DDB9460A9850EA4A000ED044F610506B
:100B1000A5F2FF3545432F14B8F1000F1ED07542E2
:100B2000291E1EDDC9F100021CE0B8F1010F4FF0D3
:100B3000000001D0302103E0F24305E02154401CC5
:100B4000B042FBDB30460022002121540B99C1F852
:100B50000880C1E900200FB0BDE8F08FBD1B6D1CFF
:100B6000DEE74A4600DA694206A800F0F3FB06AB6E
:100B700093E8070003AB83E8070050460A9906F0A4
:100B800013F88DE80700A0F500501F380090039877
:100B9000002D0ADD42F21F014A460844002303A942
:100BA0000390684606F07CFA09E0A0F500504A463A
:100BB0001F38002303A90390684606F086FA8DE8E3
:100BC00007000004000C03D04FF0FF30410800E0A4
:100BD0001046B8F1000F03D00022009215461EE027
:100BE000751E05D4FFF7CAFE303262556D1EF9D569
:100BF000B3460122084302D000227F1C04E0207883
:100C0000302801D100227F1E002A099784D01DE0E0
:100C1000112D07DAFFF7B2FE303262556D1C50EA33
:100C20000102F5D1084302D00098C8B10EE00021BE
:100C3000681E05E0235C625C63542254401E491C1C
:100C40008142F7DBAB46A81B401E0990002004F848
:100C50000B000B98099AC0F80880C0E9002B7AE7CE
:100C600011264FF0000857E72DE9F04F884604465B
:100C7000D21D22F0070191B0D1E90001CDE90A01AE
:100C800006F05AFB02460B98C00F01D02D2007E05A
:100C90002068810701D52B2002E0202101EAC00055
:100CA000032A099001D0072A05DB03464146204666
:100CB00000F010FB0BE12078800601D5E06900E030
:100CC0000620B8F1650F814606D0B8F1660F18D03E
:100CD000B8F1670F70D131E00020B9F1110F009029
:100CE00001DB112301E009F101030AAA01A90CA803
:100CF000FFF7E2FEDDE90C70002609F101058346ED
:100D000047E001204B4600904FF000470AAA01A996
:100D10000CA8FFF7D1FEDDE90DB00C995D46002669
:100D200010B909F101000D18B9EB050003D4C0F1A9
:100D3000FF3609F10105A5EB09002BE0B9F1010F20
:100D400001DA4FF001090020B9F1110F0090484677
:100D500001DD112300E003460AAA01A90CA8FFF750
:100D6000ABFEDDE90C704D46002683462078000777
:100D70000AD4AB4500DA5D4601A8012D04DD411916
:100D800011F8011C302907D04F4502DA17F1040F82
:100D900004DA012082460FE06D1EEEE7002F02DC30
:100DA000ED1B3E4403E0781CA84200DD7D1CB81B0F
:100DB00000F1010A4FF000472078000703D4AA454C
:100DC00001DB4FF0FF3A0021B7F1004F0DF143086E
:100DD0008DF8431024D002202B23002F01DA7F420C
:100DE0002D230A21021EA0F1010000DC5FB197FB58
:100DF000F1FC97FBF1F201FB1C7C17460CF1300C67
:100E000008F801CDEEE7A8F101000370218809057B
:100E100001D5452100E06521A0F1010800F8011C81
:100E200009980FA9A1EB0807FF1D00B10120411986
:100E300001EBEA70A1693844081A401EA0612078CD
:100E4000C00602D42046FFF7B4FA099828B1D4E9C5
:100E500001219047206A401C20622078C00622D5DC
:100E60002046FFF7A6FA1EE0002E04DBB34502DDA4
:100E700001A8805D00E03020D4E901219047206A7C
:100E8000401C2062761CAAF101005FEA000A0AD128
:100E900000F01CFAC0680168405CD4E90121904769
:100EA000206A401C2062281EA5F10105DCDC07E059
:100EB000D4E9012118F8010B9047206A401C2062F8
:100EC000381EA7F10107F3DC2046FFF788FA03205C
:100ED00011B041E62DE9F04F04460D46D21D22F037
:100EE000070089B0D0E900974846394606F024FA51
:100EF0000246F80F01D02D2307E02068810701D5B5
:100F00002B2302E0202101EAC0038DF820300BB131
:100F1000012000E00020032A824601D0072A04DBDA
:100F20002946204600F0D6F93FE12078800601D41A
:100F30000D2500E0E569C7F30A560D2D49DA0021B9
:100F40004FEA175B08464FF00000002F00F4400006
:100F500007DA00EB80004FF4400100EBD07001EAAB
:100F600060008115012901DD4FF0FF3100224FEAB9
:100F7000850CBCF1180F06D31346ACF118004FF0E6
:100F80008052C24003E04FF4801323FA0CF30CF1BB
:100F90000C0CBCF1200F04D3ACF1200C09FA0CF0BE
:100FA00001E007FA0CF000294FF0004801DD18B904
:100FB0000FE00ED140450CD319EB02095F4121B976
:100FC000404502D19F4329EA0209BBEB175F00D0DD
:100FD000761C2088000502D57B48784402E07A48D8
:100FE0007844193808AA302302F80A30037C0AF141
:100FF0000101002E0AF1020A53546A4602DC4FF046
:10100000300101E04FF031014FF001088DF8001080
:1010100002D0A6F2FF3603E059EA470100D06B4E3A
:10102000002D02DC2178090704D54FF002082E219B
:101030008DF80110C44600210BE0C7F303433F01C4
:10104000C35C491C6D1E02F80830052908F101082F
:1010500001DA002DF1DC00210CE000EB1973491CD2
:101060001B786D1E082902F808304FEA091908F1AB
:10107000010801DA002DF0DC21688B0602D516E0AC
:10108000A8F10108E04505DD02EB080313F8013C77
:10109000302BF5D0B8F1000F09DD02EB080313F88F
:1010A000013C2E2B03D1090701D4A8F10108002D22
:1010B00005DD3E2102F808106D1E08F10108407C94
:1010C000002E02F8080008F1010804DA2D2076420B
:1010D00002F8080002E02B2002F808000A214FF471
:1010E0007A70864208F101080BDB96FBF0F330338F
:1010F00002F8083096FBF0F308F1010800FB1366D4
:1011000001E0642E0CDB642096FBF0F3303302F830
:10111000083096FBF0F308F1010800FB136601E0CC
:101120000A2E06DB96FBF1F0303002F8080008F1D9
:10113000010896FBF1F001FB1060303002F8080066
:10114000A16908F1010808EB050202EB0A00081A80
:10115000A0612078C00602D42046FFF72AF9216A50
:1011600008AE01EB0A00206204E0D4E9012116F880
:10117000010B9047BAF1010AF7D22078C00602D5D8
:101180002046FFF716F96E4609E016F8010B3E28D7
:101190000FD0D4E901219047206A401C2062B8F1A9
:1011A0000108F2D22046FFF71AF909B00320BDE882
:1011B000F08F206A2844206203E0D4E90121302026
:1011C00090476D1EEBD3F8E7A26D000002FCFFFF15
:1011D00010B5436913B1AFF3008001E0FFF722F9C6
:1011E000012010BD127800F124010A7000224A701B
:1011F0000122EDE711684FF0FF32E9E710B54369CE
:1012000013B1AFF3008001E0FFF7A4F9012010BD96
:10121000128800F1240182840022C2840122EDE7B9
:1012200011684FF0FF32E9E72DE9F04116460C4610
:10123000054600F043F8036893F80101012807D040
:10124000FF2C12D8185D80B101202C70BDE8F08110
:10125000D3F807013246214603F20713C718284680
:10126000BC46BDE8F041002360474FF0FF30EDE79A
:10127000754600F0EBF8AE4605006946534620F08F
:101280000700854618B020B5FEF7F8FFBDE82040FE
:101290004FF000064FF000074FF000084FF0000B32
:1012A000AC46ACE8C009ACE8C009ACE8C009ACE8A1
:1012B000C00921F007018D467047000010B500F00D
:1012C00005F8001D10BD00BFD56000000048704744
:1012D000600000202DE9F0411F4604460326016806
:1012E000072A01F4006004DB08B116A505E016A585
:1012F00003E008B115A500E015A521F0100020605D
:10130000A069C01EA0610FB1401EA0612046FFF77A
:1013100050F84FB1D4E9012138469047206A401C6B
:101320002062C01C206206E0206AFAE7D4E90121AD
:1013300015F8010B9047761EF8D22046FFF74FF8BC
:10134000BDE8F0814E414E006E616E00494E460090
:10135000696E66002DE9F047814616468AB0354829
:1013600078440DC88DE80D0032487844801C03ACE9
:101370000DC884E80D0041F69B300844372190FBEE
:10138000F1F290FBF1F5A5F1800501FB12041B3C85
:1013900002D56442012000E00020DFF898A08046DA
:1013A0000027FA44AAF1BE0A0EE0E0070AD032464E
:1013B000684607EB470101230AEB810105F085FE32
:1013C0008DE8070064107F1C002CEED1194F7F447C
:1013D000AE3F19E0E80715D007EB04100DF1180A2D
:1013E00090E80E008AE80E00C068F04201D198191A
:1013F00008903246012306A903A805F066FE03AB58
:1014000083E807006D10641C002DE3D14FF0010349
:1014100032466946B8F1000F03A802D005F040FE3D
:1014200001E005F052FEC9E90001C9F808200AB040
:10143000BDE8F087AC6A000010B50446AFF3008049
:101440002046BDE81040FEF704BF0000004870478A
:10145000400000204FF0013C50F8042B51F8043BB1
:101460009A4221D1A2EB0C03934313EACC1317D178
:1014700050F8042B51F8043B9A4215D1A2EB0C030F
:10148000934313EACC130BD150F8042B51F8043BCF
:101490009A4209D1A2EB0C03934313EACC13DBD09D
:1014A0004FF00000704700BFD01A01BAB1FA81F1C5
:1014B00001F0180122FA01F0CB40DBB2C0B2C01A31
:1014C000C1F120012CFA01F3D11A914311EAC311A1
:1014D000E6D1704701491820ABBEFEE726000200A6
:1014E00070470000FEE7000040F2C040C2F200007A
:1014F00000F01EB870470000EFF3108072B600BF16
:10150000FEE7000040F2A450C2F2000001684A6AFF
:1015100090074FF0000004BF486242F38D0070470F
:1015200040F2A841C2F20001087800220A70704718
:1015300010B5D0E90FCE0168DCF800300A6823FA54
:101540000EF35C0724D512F0040421D00A68920639
:1015500003D40A6822F004020A602F22C4F20202B5
:10156000914240F20402C4F202024FDD3023C4F281
:101570000203994262D04423C4F20203994260D02C
:101580005823C4F20203994260D14FF4802365E0EE
:101590009C0727D512F0020424D00A68920606D4CC
:1015A0000A6822F00A020A60012280F821202F2214
:1015B000C4F20202914240F20402C4F2020231DD9E
:1015C0003023C4F2020399424ED04423C4F20203F2
:1015D00099424CD05823C4F2020399424CD14FF4A3
:1015E000003351E01B0756D512F0080208BF10BDAA
:1015F0000A6822F00E020A60012101FA0EF2CCF80C
:101600000420816380F82110016B3FE00823C4F2BD
:101610000203994218D01C23C4F20203994215D147
:1016200040231BE00823C4F20203994222D01C236A
:10163000C4F2020399421FD1202325E04FF48063B6
:101640000CE04FF4804309E0042307E002F1680452
:101650004FF08063A14208BF4FF480031360C16A5A
:10166000C9B1BDE8104008474FF400730CE04FF4D7
:10167000005309E0022307E002F168044FF0007311
:10168000A14208BF4FF400131360816A00220029B1
:1016900080F82020E5D110BD014600284FF0010060
:1016A00008BF70472DE9F043D1F800C04FF6F8733A
:1016B000CBF6FD734CF6CD426344CCF6CC42A3FB93
:1016C00002236FF0030202EA93020023C4F2020332
:1016D00001F10C08C1E90F320222D1E9019E98E81C
:1016E000F00181F82120DCF8002043F6F0739A43E2
:1016F00042EA090242EA0E0222432A4332433A43B3
:1017000042EA0802CCF8002000228A6381F8210016
:1017100081F820200020BDE8F043704790F820C0F9
:10172000BCF1010F04BF02207047F0B54FF0010E6D
:1017300080F820E090F821C0BCF1010F23D14FF0D8
:10174000020C80F821C04FF0000CC0F838C0D0E97E
:1017500000C4C56AC66BDCF80070102C27F00107C6
:10176000CCF80070006C0EFA00F070600846CCF8FF
:10177000043004BF10460A46CCF80800CCF80C2010
:1017800035B10E200BE0002180F820100220F0BDC2
:10179000DCF8000020F00400CCF800000A20DCF89F
:1017A00000100843CCF80000DCF8000040F0010015
:1017B000CCF800000020F0BDB0B5044600F01EF9E2
:1017C000054640F23400C2F200000078611C18BFE8
:1017D000044400BF00F012F9401BA042FAD3B0BD90
:1017E0002DE9F04F82B00E68002E00F0F78041F234
:1017F0000042C4F20102042340F2004E904208BFAE
:1018000003234FF6FF7CC4F2010E00930024012352
:10181000C1F2100C4FF0000A4FF000094AE041F20B
:101820000002C4F20102009F904208BF022704F0A8
:101830000C030F229A402BEA020207FA03F34FEA45
:101840009A051A4346F825204E6840F20C45F202EC
:10185000DEF8082054BF22EA080242EA0802C4F275
:101860000105CEF808202A68B30254BF22EA080214
:1018700042EA08022A60B303DEF8042054BF22EAD9
:10188000080242EA0802F303CEF80420DEF8002042
:101890004FF0010354BF22EA080242EA0802CEF8E0
:1018A00000200E680AF1010A36FA0AF204F1040473
:1018B00000F0948003FA0AFB16EA0B08F1D04E6898
:1018C000664511DC122E51D8DFE806F0340A49468D
:1018D00050505050505050505050505050424D0069
:1018E000D1F80C9042E000BF4FF6FF72C1F2210226
:1018F00096420FDC0022C1F2110296421AD0002259
:10190000C1F21202964215D00022C1F22102964283
:1019100010D02BE00022C1F2220296420AD000220F
:10192000C1F23102964205D00022C1F23202964243
:101930001CD100BF8A6842B1012A14BFC0F814B09C
:10194000C0F810B04FF0080910E04FF004090DE0A6
:10195000CA6802F1040909E04FF0000906E0CA680C
:1019600002F1080902E0CA6802F10C0902462646A3
:10197000B8F5807F24BF0432203E17680F25B5409C
:1019800027EA050509FA06F635431560CA79D20635
:101990007FF587AF41F21803C4F202031A68AEF56F
:1019A0007E7642F001021A601A6802F0010201928A
:1019B000019A2AF0030256F802B040F60002C4F27F
:1019C0000102904208D040F60042C4F20102904267
:1019D0007FF425AF01272AE7002728E702B0BDE8FA
:1019E000F08F00008068084018BF01207047000099
:1019F000002A08BF090401617047000041F2DC7051
:101A0000C2F200000068704740F2340041F2DC711D
:101A1000C2F20000C2F2000100780A6810440860B7
:101A20007047000080B542F20000C4F20200016875
:101A300041F010010160032000F0C8F80F2000F011
:101A400005F800F05DF8002080BD0000B0B586B05C
:101A500041F21C01C4F202010A68044642F0040289
:101A60000A60096801A801F0040101910199694621
:101A700000F096F9049D002D18BF012500F0B2F981
:101A80004DF68361A840C4F21B31A0FB01014FF069
:101A9000FF3000EB914140F2EC5040F60002C2F200
:101AA0000000C4F2000240F2E7330025C0E9002143
:101AB000C0E902530561856100F0A8FD08B106B0D8
:101AC000B0BD40F2EC50C2F2000000F035FE00283C
:101AD000F5D105461E2000F03BF80F2C0CD81E2037
:101AE0002146002200F046F840F23800C2F2000021
:101AF0000460284606B0B0BD012006B0B0BD0000AD
:101B000080B582B041F21800C4F2020001680022E0
:101B100041F001010160016801F0010101910199A9
:101B2000416841F08051416040680F2100F08050D1
:101B3000009000986FF0010000F01CF80420C4F23F
:101B400001000168022262F31A61016002B080BDE7
:101B5000002848BF704700F01F01012202FA01F17E
:101B60001C2202EAD0004EF20012CEF20002815096
:101B70007047000010B54EF60C5CCEF2000CDCF89D
:101B80000030C3F3022E8EF00704042C28BF042477
:101B9000BEF103034FF0FF3E0EFA04F438BF0023FA
:101BA000A14399400EFA03F39A43114300F16042B6
:101BB00000F00F03090102F56442043B634400286E
:101BC00048BF03F10C02117010BD00004EF60C511D
:101BD000CEF200010A684FF6FF031A4060F30A22B2
:101BE00042F0806040F0FD7008607047002804BF3C
:101BF000012070472DE9F04381B042F20008C4F2A1
:101C000002080446D8F800000D4600F0070088429C
:101C10000CD2D8F8000020F007002843C8F80000D4
:101C2000D8F8000000F00700A8426BD1206841F20C
:101C300004098107C4F2020917D5410705D5D9F86F
:101C4000001041F4E061C9F80010010705D5D9F88A
:101C5000001041F46051C9F80010D9F80010A268D2
:101C600021F0F0011143C9F80010C00741D1D8F8A4
:101C7000000000F00700A8420CD9D8F8000020F0BE
:101C800007002843C8F80000D8F8000000F007005B
:101C9000A84237D12068410707D5D9F80010E2687B
:101CA00021F4E0611143C9F80010000708D5D9F804
:101CB0000000216920F4605040EAC100C9F800002A
:101CC000D9F8002002F00C00082841F20020C0F2F0
:101CD0007A0049D148F2BC43C2F38341C0F6000305
:101CE000595CD20334D440F60010C0F23D004843A2
:101CF0003AE0606859F8041C022807D0012824D172
:101D0000890305D4012001B0BDE8F0838901F9D52C
:101D1000D9F8001021F003010843C9F80000FFF7CB
:101D20006DFE064641F28837D9F80000616800F080
:101D30000C00B0EB810F9AD0FFF760FE801BB84219
:101D4000F2D9032001B0BDE8F0838907DAD5DFE7D7
:101D5000D9F8002047F66463C2F34042C0F600039E
:101D60009A5C4843B0FBF2F0D9F8001047F62862BD
:101D7000C1F30311C0F60002515C40F2000220FAE8
:101D800001F140F23800C2F200000068C2F2000225
:101D90001160FFF75BFE002001B0BDE8F08300009A
:101DA0000F22026041F20402C4F20202136803F03F
:101DB00003034360136803F0F0038360136803F4C4
:101DC000E063C36012684FF4E06303EAD202026189
:101DD00042F20000C4F20200006800F00700086050
:101DE0007047000040F2000041F20401C2F200001E
:101DF000C4F202010068096847F63862C1F30221A3
:101E0000C0F60002515CC84070470000002804BFC3
:101E1000012070472DE9F04182B00446007841F27C
:101E20000006C007C4F2020647D0706800F00C003C
:101E3000042808D1306880033FD56068E8BB0120E2
:101E400002B0BDE8F081706800F00C00082802D1F3
:101E50007068C003EED4656830682DB1B5F5A02F69
:101E600009D0B5F5803F0AD020F48030306030686A
:101E700020F4802005E040F480203060306840F499
:101E800080303060FFF7BAFD002D054612D000BF4C
:101E90003068800311D4FFF7B1FD401B6428F7D9E7
:101EA00016E100BFFFF7AAFD401B64284FF00300B6
:101EB00000F2D88030688003F4D42078800719D5E8
:101EC000706810F00C0F07D0706800F00C00082844
:101ED00027D17068C00324D43068800703D52069F7
:101EE000012840F0A6803068616920F0F80040EADF
:101EF000C1003060207800074ED5A06938B30020BB
:101F0000C4F242200121C0F88014FFF777FD054696
:101F1000706A80072DD4FFF771FD401B0228F7D9A6
:101F2000D6E02069002840F20000C4F2422000F010
:101F3000A88001210160FFF761FD05463068800738
:101F4000D1D4FFF75BFD401B0228F7D9C0E0002089
:101F5000C4F242200021C0F88014FFF74FFD05466F
:101F6000706A800718D5FFF749FD401B0228F7D992
:101F7000AEE040F20000C2F20000006844F6D35127
:101F8000C1F26201A0FB0101480A019000BF019863
:101F9000411E00280191F9D12078400717D4E56946
:101FA0008DB1706800F00C00082846D1012D40D09A
:101FB0007068216A00F480328A423AD1616A00F482
:101FC0007010884235D1002002B0BDE8F081F06980
:101FD0005FEAC00808D4F06940F08050F061F06911
:101FE00000F080500090009847F20007C4F200070C
:101FF0003868C0050FD4386840F480703860FFF747
:10200000FDFC05463868C00505D4FFF7F7FC401B0A
:102010006428F7D95CE0E568306A1DB1052D41D030
:10202000012D43D020F001003062306A20F004001E
:102030003EE0012002B0BDE8F0810027C4F2422753
:1020400000203866FFF7DAFC022D05460ED100BFEE
:102050003068800153D5FFF7D1FC401B02284FF0B8
:102060000300F5D902B0BDE8F08100BF30688001FF
:10207000A9D5FFF7C3FC401B02284FF00300F5D998
:10208000F0E700210160FFF7B9FC054630688007E2
:102090007FF530AFFFF7B2FC401B02284FF0030082
:1020A000F4D9DFE740F004003062306A40F001000C
:1020B0003062FFF7A3FC002D054641F2883712D0AD
:1020C000306A800712D4FFF799FC401BB842F7D959
:1020D000032002B0BDE8F081FFF790FC401BB8423E
:1020E0004FF00300BED8306A8007F5D4B8F1000F76
:1020F0003FF555AFF06920F08050F0614FE7206A5E
:10210000B0F5803F05D17168A26821F40031114318
:1021100071607168626A21F4741111430843706040
:1021200001203866FFF76AFC044600BF3068800172
:102130003FF549AFFFF762FC001B02284FF0030098
:10214000F4D98FE77047000070B528B1416A29B112
:1021500000210161142106E0012070BD4168B1F544
:10216000827F02D01C21002242500026866290F815
:10217000511029B980F85060054600F039F828461A
:10218000022180F8511090E82E0002F482720C684F
:1021900003F4044324F040040C601A4405F4006383
:1021A00005691A4405F0020345691A4405F0010364
:1021B0008569C4691A4405F400731A4404F03803AD
:1021C000046A1A4404F08003846A1A4304F4005336
:1021D0001A430A60042202EA15424A60CA6922F4DC
:1021E0000062CA610121466580F85110304670BD19
:1021F00070B586B0044640F60040C4F20100216884
:1022000000F51052002691420596CDE9036602962C
:1022100001D006B070BD41F21801C4F202010A6893
:1022200042F480520A600A6802F480520192019AD4
:102230000A6842F008020A60096801F00801019189
:10224000019928210291022103910321059102A9FC
:10225000FFF7C6FA0420C4F20100016840F2C0454D
:1022600041F0E06141F0010101603020C2F200055F
:10227000C4F20200102180224FF4405385E843004D
:102280002846C5E90326C5E90566EB61FFF704FAB0
:10229000002818BFFFF730F9A5646C6206B070BD66
:1022A0002DE9F04182B01D4616460F460446FFF761
:1022B000A5FB94F8511001290DD18046002F4FF055
:1022C000010018BF002E02D102B0BDE8F08194F8E1
:1022D0005000012803D1022002B0BDE8F0810120A6
:1022E00084F85000032084F85100002060652763C3
:1022F000A686E686A063A087E087A168C4E91000EF
:10230000B1F5004F08D12068016821F0400101605B
:10231000016841F48041016020680168490603D4E6
:10232000016841F0400101606168731EE268B1FA22
:1023300081F1B3FA83F349095B09B2F5006F41EA11
:10234000030124D131B137F8021BC1602763E08E4D
:102350000138E086E08E002847D06E1C0AE000BFFE
:10236000216B31F8022BC2602163E08E0138E086D8
:10237000E08ED0B3206881688907F1D4FFF73EFB77
:10238000002EF5D0A0EB0800A842F1D323E039B12C
:1023900039780173206B01302063E08E0138E086CC
:1023A000E08E10B36E1C0AE0216B09780173206B7C
:1023B00001302063E08E0138E086E08EA8B120680D
:1023C00081688907F0D4FFF719FB002EF5D0A0EB48
:1023D0000800A842F1D3012084F85100002084F8BD
:1023E0005000032002B0BDE8F08120460221012206
:1023F0002B46CDF8008002F025F940B92046802117
:1024000000222B46CDF8008002F01CF928B1606D47
:1024100040F02000606520206065A06838B9002089
:1024200001902068C16801918068019001980120A5
:1024300084F85100002084F85000606D002818BF17
:10244000012002B0BDE8F08190F85130012B0BD192
:1024500000294FF0010318BF002A01D11846704728
:1024600090F85030012B02D1022318467047B0B5C6
:10247000012380F85030032380F851300023436556
:1024800001638286C2868363C0E910338387C38772
:102490008268B2F5004F08D10268146824F0400445
:1024A0001460146844F480441460D0F848C044F2C6
:1024B000A95E44F2B15444F28955C0F6000EC0F64C
:1024C0000004C0F600050268CCE90A4ECCE90C53C2
:1024D000C38E04460C326046FFF720F940B1606DB0
:1024E000012340F010006065002084F8500012E0E5
:1024F00020680168490603D4016841F04001016089
:10250000002384F85030416841F020014160416867
:1025100041F002014160BDE8B0401846704700003C
:1025200040F60000C4F201004FF400410122FFF721
:102530005FBA00007047000001F0DCBF7047000088
:102540007047000090F83C20012A04BF0220704729
:10255000B0B501F108053CCDD1E900CE23F47C53A0
:1025600022F470521A432EF4F0431A432CF4E04341
:102570001A4324F4C0431A432A43C96922F480420F
:10258000036811435964002180F83C100020B0BD5D
:1025900090F83C20012A4FF0020234D010B50123FC
:1025A00080F83C3080F83D200268D2F804E0D2F890
:1025B00008C00C682EF07003234340F2FF74C4F28D
:1025C0000004A242536005DCB2F1804F0ED040F20D
:1025D000004307E042F60043C4F201039A4205D0EB
:1025E00040F60003C4F200039A4204D149682CF07B
:1025F0008003194391600121002280F83D1080F88A
:102600003C20BDE81040104670470000002804BF81
:102610000120704710B590F83D1031B9002180F8C5
:102620003C10044600F066F82046022180F83D1078
:10263000016840F2FF740B68C4F2000442F6004CDB
:10264000A142C4F2010C05DCB1F1804F0AD040F286
:10265000004203E0614505D040F60002C4F20002EA
:10266000914203D1826823F070031343A14205DC39
:10267000B1F1804F0AD040F2004203E0614505D03D
:1026800040F60002C4F20002914203D1026923F431
:1026900040731343846923F08002D0F804E0C368D8
:1026A000224361450A60CB62C1F828E002D1426949
:1026B000CCF8302001224A610B69DB0703D00B699B
:1026C00023F001030B6180F8462080F83E2080F85B
:1026D0003F2080F8402080F8412080F8422080F898
:1026E000432080F8442080F8452080F83D200020D9
:1026F00010BD0000006842F60041C4F201018842AA
:1027000018BF704780B582B041F21800C4F20200D1
:102710000168002241F4006101600068052100F4B5
:102720000060019001981920FFF724FA192002B0E7
:10273000BDE88040FFF70CBA90F83D1001291CBF9E
:1027400001207047022180F83D10006840F2FF72BE
:10275000C168C4F20002904241F00101C16005DC91
:10276000B0F1804F0ED040F2004107E042F6004148
:10277000C4F20101884205D040F60001C4F2000114
:10278000884206D1816801F00701062904BF0020B4
:102790007047016841F001010160002070470000AE
:1027A0000146006841F21113026A1A4208D1026A16
:1027B00040F244431A4203D1026822F0010202604F
:1027C0000122002081F83D207047000090F83C2055
:1027D000012A4FF002026ED080B5012380F83C3010
:1027E00080F83D20D0F800C04FF67772DCF8083052
:1027F00023EA0202CCF808200B684F2B28DC1F2BA1
:1028000044DD202B45D0302B43D0402B40F0AC8012
:10281000D1F804E0C968DCF82030DCF8202022F090
:102820000102CCF82020DCF8182022F0F00242EA65
:10283000011123F00A0242EA0E02CCF81810CCF87B
:102840002020DCF8081041F0470121F0300127E09A
:102850006F2B32DDB3F5005F73D0B3F5805F21D00D
:10286000702B40F08180D1E901E3C968DCF80820D1
:1028700043EA0E0322F47F4243EA01211143CCF8DC
:102880000810DCF8081041F0770109E00BB1102BBB
:102890006AD1DCF8081021F07001194341F00701FA
:1028A000CCF808100022012180F83D10002180F8AA
:1028B0003C10BDE8804010467047502B21D0602B63
:1028C00052D1D1F804E0C968DCF82030DCF82020CF
:1028D00022F01002CCF82020DCF8182022F47042FC
:1028E00042EA013123F0A00242EA0E12CCF818109D
:1028F000CCF82020DCF8081041F0670121F010012D
:10290000CEE7D1F804E0C968DCF82030DCF82020FC
:1029100022F00102CCF82020DCF8182022F0F0028E
:1029200042EA011123F00A0242EA0E02CCF8181022
:10293000CCF82020DCF8081041F0570121F02001EC
:10294000AEE7D1E901E3C968DCF8082043EA0E03E9
:1029500022F47F4243EA01211143CCF80810DCF84D
:10296000081041F480419BE701229CE7002804BF46
:10297000012070472DE9F04F81B090F83D2042B919
:10298000002280F83C2004460D4600F093F82946CA
:102990002046022280F83D20026844F20705936831
:1029A00042F6004CAB43936040F2FF731468C4F2EC
:1029B00000039A42C4F2010C05DCB2F1804F0AD048
:1029C00040F2004503E0624505D040F60005C4F240
:1029D0000005AA4203D1856824F070042C439A4272
:1029E00005DCB2F1804F0AD040F2004303E06245BB
:1029F00005D040F60003C4F200039A4204D10369F3
:102A000024F4407543EA050424F080038469D0F877
:102A100004E0C568234362451360D562C2F828E02C
:102A200002D14369CCF830304FF0010EC2F814E007
:102A30001569ED0703D0156925F001051561956845
:102A40009469D2F820C0D1E90038D1E9027B43EA89
:102A5000050A8D694FF6FF7924EA090447EA05253E
:102A60004FF6FC47BD43D1E9077644EA0B040B69F6
:102A70002C4344EA07242CF02207496944EA031353
:102A800047EA080743EA063347EA0111C2F808A0FB
:102A90009361116280F846E080F83EE080F83FE004
:102AA00080F842E080F843E080F83DE0002001B08B
:102AB000BDE8F08F80B586B040F200410068C4F2F6
:102AC000000100228842CDE904220392029201D043
:102AD00006B080BD41F21800C4F20200436843F022
:102AE00002034360436803F002030193019B036800
:102AF00043F004030360006800F0040001900198B3
:102B0000C020CDE9020201F5823002A90492FEF74D
:102B100067FE06B080BD000080B590F83E2090F8BA
:102B20003F3090F842E090F843C0042909D099B9A9
:102B3000012A4FF0010208BFBEF1010F22D010465A
:102B400080BD012B4FF0010208BFBCF1010FF6D18F
:102B5000022280F83F2012E0012A4FF0010208BF54
:102B6000012BECD1BEF1010FE9D1BCF1010FE6D18F
:102B7000022280F83E2080F83F2080F8422080F832
:102B8000432004E0022280F83E2080F842200268C0
:102B90000429136A04D031B923F0010101230DE0A7
:102BA00023F0100109E023F001011162116A41F0E4
:102BB00001011162116A21F0100110231162116AE2
:102BC0001943116200680022016841F001010160AF
:102BD000104680BD7047000070B504460068C568A7
:102BE0000669B10716D515F0020113D06FF0020186
:102BF0000161012121778069800703D02046FFF71A
:102C0000E9FF05E0204600F08DF8204600F002FACA
:102C100000202077700718D515F0040015D0206823
:102C20006FF00401016102212177806910F4407F77
:102C300003D02046FFF7CEFF05E0204600F072F8F3
:102C4000204600F0E7F900202077300717D515F06F
:102C5000080014D020686FF0080101610421217779
:102C6000C069800703D02046FFF7B4FF05E0204687
:102C700000F058F8204600F0CDF900202077F0064B
:102C800018D515F0100015D020686FF01001016103
:102C900008212177C06910F4407F03D02046FFF758
:102CA00099FF05E0204600F03DF8204600F0B2F91B
:102CB00000202077F00718BF15F0010002D1300680
:102CC00009D412E020686FF001010161204600F094
:102CD000DDFA300609D515F0800006D020686FF0C7
:102CE000800101612046FFF729FC700609D515F027
:102CF000400006D020686FF040010161204600F0DE
:102D0000DBFAB00658BF70BD15F0200008D021686E
:102D10006FF0200220460A61BDE87040FFF710BC4A
:102D200070BD00007047000090F83C30012B04BFDC
:102D3000022070474FEAB2020123032A80F83C3098
:102D400000F2EC802DE9F041DFE802F002A63B76CC
:102D5000036842F600451C6A1A6AC4F2010522F0B3
:102D600001021A621A46D3F804C052F818EF8E68AE
:102D700024F00204AB4244EA060405D1CE6824F0F4
:102D80000C0426F0040634430E68AB4206D1D1E9A8
:102D900005582CF440772F4347EA080C2EF07307B0
:102DA0003743C3F804C09F614F6809695F631C62C1
:102DB0009F6947F008079F619F6927F004079F619B
:102DC000A6E0036842F600451C6A1A6AC4F20105CF
:102DD00022F480721A621A46D3F804C052F81CEF2B
:102DE0008E6824F40074AB4244EA062407D1CE680E
:102DF00040F2FF47360224F44064BE4334430E6879
:102E0000AB4206D1D1E905572CF4405C3D434CEA76
:102E1000051C2EF073073743C3F804C0DF614F6809
:102E20000969DF631C62DF6947F00807DF61DF695A
:102E300027F00407DF616BE0036842F60047D3F830
:102E400020C01A6AC4F2010722F480521A621A469C
:102E50005C6852F81C5FD1F800E08E68BB4204D178
:102E60004F6924F4804444EA87142CF4005747EA5D
:102E7000063725F4E64646EA0E265C60DE614E68BB
:102E800009691E641F62DF6947F40067DF61DF695B
:102E900027F48067DF613AE0036842F600451C6A68
:102EA0001A6AC4F2010522F010021A621A46D3F817
:102EB00004C052F818EF8E6824F02004AB4244EAB4
:102EC000061407D1CE686FF0400724F0C00407EA6B
:102ED000061634430E68AB4206D1D1E905572CF4EF
:102EE000406C3D434CEA850C2EF4E64747EA062742
:102EF000C3F804C09F614F6809699F631C629F69A2
:102F000047F400679F619F6927F480679F6109020A
:102F10001368194300231160BDE8F041002180F8D7
:102F20003C10184670470000002804BF012070477D
:102F300010B590F83D1031B9002180F83C100446DE
:102F400000F066F82046022180F83D10016840F24A
:102F5000FF740B68C4F2000442F6004CA142C4F2B4
:102F6000010C05DCB1F1804F0AD040F2004203E0D1
:102F7000614505D040F60002C4F20002914203D13F
:102F8000826823F070031343A14205DCB1F1804F46
:102F90000AD040F2004203E0614505D040F600024D
:102FA000C4F20002914203D1026923F44073134337
:102FB000846923F08002D0F804E0C36822436145AD
:102FC0000A60CB62C1F828E002D14269CCF8302017
:102FD00001224A610B69DB0703D00B6923F001036F
:102FE0000B6180F8462080F83E2080F83F2080F872
:102FF000402080F8412080F8422080F8432080F86B
:10300000442080F8452080F83D20002010BD0000BD
:1030100070470000704700004122082908BF402285
:10302000042908BF3F22002908BF3E22825C012AF2
:103030001CBF01207047022241B1082909D0042990
:1030400014BF80F8412080F83F2004E080F83E2043
:1030500001E080F84020006801F01F010122036AAE
:103060008A4023EA02010162036A42F64441C4F243
:1030700001011A43A1F144039842026203D10A6894
:1030800042F400420A6040F2FF71C4F2000188423B
:1030900005DCB0F1804F0ED040F2004107E042F66F
:1030A0000041C4F20101884205D040F60001C4F29B
:1030B0000001884206D1816801F00701062904BF9A
:1030C00000207047016841F0010101600020704755
:1030D00002464120082908BF4020042908BF3F209C
:1030E000002908BF3E20105C01281CBF012070474A
:1030F000022041B1082909D0042914BF82F84100F7
:1031000082F83F0004E082F83E0001E082F84000CF
:1031100080B54FEAB103032B11D848F28C4CD2F89A
:1031200000E0C0F6000C5CF823C0DEF80C0040EABA
:103130000C00CEF80C000020032B03D980BD012029
:10314000032BFBD8126801F01F014FF0010C136A2A
:103150000CFA01F18B431362136A42F6444CC4F239
:10316000010C1943ACF144039A42116205D1DCF819
:10317000001041F40041CCF8001040F2FF71C4F29D
:1031800000018A4205DCB2F1804F0ED040F20041CE
:1031900007E042F60041C4F201018A4205D040F640
:1031A0000001C4F200018A4205D1916801F00701D3
:1031B000062908BF80BD116841F00101116080BD82
:1031C00010B54FEAB103032B13D848F29C4CD0F84A
:1031D00000E0C0F6000C5CF823C0DEF80C2002EA28
:1031E0000C02CEF80C204FF0000E032B05D97046D0
:1031F00010BD4FF0010E032BF9D8036801F01F0C2E
:1032000001221C6A02FA0CF224EA020242F6004C85
:103210001A62C4F2010C1A6A63451A620ED1DCF814
:10322000202041F21114224208D11A6A40F244448B
:10323000224203D15A6C22F400425A641A6A41F2C3
:103240001114224208D11A6A40F24444224203D1A6
:103250001A6822F001021A6008290CD0042905D04E
:1032600071B9012180F83E10704610BD012180F82F
:103270003F10704610BD012180F84010704610BD0F
:10328000012180F84110704610BD0000B0B540F635
:1032900000050446C4F20005006805F59231884235
:1032A00002D12046FFF748F92068A84218BFB0BDF8
:1032B000BDE8B040FEF7A8BB70470000FEE7000085
:1032C000B0B548F20552C0F600020020002100F01F
:1032D000D5FF48F2F04448F20055C0F60004C0F6AD
:1032E000000500BF00F05AFA0128224603D000F082
:1032F00055FA20B92A463820002100F071FFFEF768
:1033000001F930B100F04AFA013818BF012000F08D
:1033100089FAFEF705F9012805D001F047F80520E4
:1033200001F0F0FADEE700F039FA012804D148F2A2
:10333000F042C0F6000206E000F030FA38B948F278
:103340000052C0F600023820002100F097FF48F23A
:103350000552C0F6000200200021BDE8B04000F098
:103360003FBF0000704700007047000080B582B08A
:1033700041F21400C4F202000168002241F0010190
:1033800001600068052100F00100019001980D2006
:10339000FEF7F0FB0D2002B0BDE88040FEF7D8BB81
:1033A00080B543F6292047F66863C0F60000C0F6F2
:1033B00000030121002201F069FB40F2AC41C2F29E
:1033C0000001086044F2557048F2CC42C0F600009B
:1033D000C0F60002002101F0F9FA40F2BC41C2F24D
:1033E0000001086045F2F53048F26842C0F600007E
:1033F000C0F60002002101F0E9FA40F2B441C2F245
:103400000001086044F2957047F64062C0F6000083
:10341000C0F60002002101F0D9FA40F2A001C2F288
:103420000001086080BD00002DE9F04786B000274C
:1034300041F21800CDE90477CDE90277C4F2020029
:10344000016840F6004441F0200101600168C4F2C7
:10345000010401F02001019101990168002241F06D
:1034600004010160016801F0040101910199016802
:1034700041F008010160006847F2C04100F0080017
:10348000019001982046FEF7B3FA20464FF4004120
:1034900001224FF400484FF00109FEF7A9FAA4F504
:1034A000806528464FF400410022FEF7A1FA02AEE3
:1034B00020463146CDE902970497FEF791F94FF483
:1034C0009060CDE902094FF0030A20463146049787
:1034D000CDF814A0FEF784F94FF24000CDE90209BF
:1034E00002200590204631460497FEF779F92846D8
:1034F0003146CDE90289CDE9047AFEF771F906B0CB
:10350000BDE8F08780B540F2045043F20001C2F2FA
:103510000000C4F201014FF48272002380E80E0023
:1035200000F114014FF4007C4FF0200E81E80850A8
:103530000A21C0E90333C0E90833C0E90A31FEF7C4
:1035400003FE002808BF80BDBDE88040FDF7D4BF62
:1035500070B59CB042F6004540F25C50C4F20105E3
:103560000021C2F20000482242F20F738026CDE90A
:103570001511CDE913111191CDE90F11CDE90D11FF
:10358000CDE90B11CDE90911CDE90711CDE90511FF
:10359000CDE90311CDE90111C0E90052C0E90213E0
:1035A000C0E904118661FFF731F8002818BFFDF764
:1035B000A3FF4FF48050139040F25C50C2F2000021
:1035C00013A9FFF703F9002818BFFDF795FF40F294
:1035D0005C50C2F20000FFF7A7FC002818BFFDF7FF
:1035E0008BFF40F25C500024C2F2000010A9CDE92C
:1035F0001044FEF7CDFF002818BFFDF77DFF6020C7
:10360000099041F28730CDE90A0440F25C50C2F2E1
:10361000000009A90022CDE90C44CDE90E44FFF7D2
:1036200083FB002818BFFDF767FF40F25C544FF49E
:103630000050C2F200040026069001A9204605961B
:10364000CDE90366CDE901660896FEF77BFF002809
:1036500018BFFDF751FF2068CDE91A66A8421996F8
:10366000189601D01CB070BD41F21800C4F20200DF
:10367000016841F004010160006818A900F004002D
:10368000179017984FF4807018900220199003201B
:103690001B90A5F51050FEF7A3F81CB070BD0000FC
:1036A000B0B58CB003AC20462421FCF758FE40F2A4
:1036B000A45040F200410025C2F20000C4F2000113
:1036C000C0E9001503214FF6FF72CDE90315012172
:1036D0000DF1240CC0E90252059108220F238CE859
:1036E0000E002146CDE90055056185610692CDE9C0
:1036F0000735FFF73BF9002818BFFDF7FDFE40F244
:10370000A450C2F200006946CDE90055FEF740FF23
:10371000002818BFFDF7F0FE0CB0B0BDFEE70000BA
:1037200070B540F23860C2F20000007801381F28FE
:1037300018D8002200240025DFE800F01918141022
:103740001414141714141414141414121414141438
:10375000141414141414141414141415012406E06D
:10376000012204E00024012200E00124012540F6AA
:103770000046C4F2010630464FF48041FEF738F9A6
:1037800030464FF400512246FEF732F930464FF4EE
:1037900080512A46BDE87040FEF72AB940F23860F1
:1037A000C2F200004078704710B540F23864C2F2AF
:1037B000000404F118030FCB101A63EB010104F0AD
:1037C0003CF921780446084604F064F90021C4F26B
:1037D000483104F0DBF90146204604F035F810BD0D
:1037E00040F23860C2F200004178012904D000297B
:1037F00014BF0020406870470069704740F238608D
:10380000C2F200002021018000210181416001619C
:103810008182C0E90611C0E90811816280F82C108C
:103820007047000040F23861C2F2000148707047F2
:1038300040F23862C2F200025378012B18BF704781
:1038400080B5CB1710EB13634FF0000C41F1000E65
:103850001B0A43EA0E63C2E906CC02F1200C0133D5
:103860008CE80B0082F82C00BDE880407047000017
:1038700070B540F23866C2F20006717834780129DA
:1038800024D0002918BF70BD0021C4F248317060F7
:1038900004F07CF90546204604F0FCF80146284671
:1038A00004F074F90021C4F2702103F0CDFF03F09D
:1038B00069FF0B4648F280410246C4F22E110020F7
:1038C00003F082FD03F0DCFE308170BD0021C4F204
:1038D0004831306104F05AF90546204604F0DAF820
:1038E0000146284604F052F90021C4F2702103F089
:1038F000ABFF03F047FF0B4648F280410246C4F29B
:103900002E11002003F060FD03F0BAFEB08270BDFE
:1039100070B540F60044C4F20104FFF701FF2046F1
:103920004FF4004100220025FEF762F840F23866AD
:10393000C2F200067078012818D088BB7068002198
:1039400003F060FF0246002820464FF4806118BF54
:103950000122FEF74DF840F25C51C2F200013089BD
:103960000A68D062C8604008506329E0706A4FF46A
:103970008061B0F1FF3FC8BF012520462A46FEF70F
:1039800037F840F25C55C2F20005B18A2868C1627E
:10399000E96049084163B16A012909D9FF220BE0B6
:1039A00020464FF400410122BDE87040FEF720B8E8
:1039B00023D196F82C20013A0263481E6A61B06256
:1039C000707801280BD0002818BF70BD40F25C5001
:1039D000C2F200000021BDE87040FFF71DBB40F2BD
:1039E0005C54C2F2000420460021FFF771FB2068FE
:1039F000C16841F00101C16070BD28460021FFF798
:103A0000DFFB2846FEF7CCFE2B684FF40041D86858
:103A1000012220F001062046DE60BDE87040FDF77F
:103A2000E7BF0000FEE700007047000080B540F2ED
:103A3000A400C2F200004FF48061FCF790FC80BD4E
:103A40002DE9F04F81B040F600046420C4F2010477
:103A5000FDF7B2FE04F5806528468021012280270B
:103A6000FDF7C6FF6420FDF7A7FEAE208DF803002A
:103A70002846402100224FF040094FF00008FDF792
:103A8000B7FF20464FF400410022FDF7B1FF40F29E
:103A90000456C2F200060DF1030B304659460122CE
:103AA0004FF47A73FEF7FCFB20464FF400410122ED
:103AB000FDF79EFFD5208DF8030028464021002207
:103AC000FDF796FF20464FF400410022FDF790FFDE
:103AD0000DF10301304601224FF47A73FEF7E0FB4B
:103AE00020464FF400410122FDF782FF2846402185
:103AF00000228DF80370FDF77BFF20464FF4004154
:103B00000022FDF775FF0DF10301304601224FF44D
:103B10007A73FEF7C5FB20464FF400410122FDF702
:103B200067FFA8208DF80300284640210022FDF7FA
:103B30005FFF20464FF400410022FDF759FF0DF1D1
:103B40000301304601224FF47A73FEF7A9FB2046A9
:103B50004FF400410122FDF74BFF3F208DF8030099
:103B6000284640210022FDF743FF20464FF4004144
:103B70000022FDF73DFF0DF10301304601224FF415
:103B80007A73FEF78DFB20464FF400410122FDF7CA
:103B90002FFFD3208DF80300284640210022FDF797
:103BA00027FF20464FF400410022FDF721FF0DF1D1
:103BB0000301304601224FF47A73FEF771FB204671
:103BC0004FF400410122FDF713FF28464021002257
:103BD0008DF80380FDF70CFF20464FF400410022D2
:103BE000FDF706FF0DF10301304601224FF47A7311
:103BF000FEF756FB20464FF400410122FDF7F8FE88
:103C00002846402100228DF80390FDF7F1FE204662
:103C10004FF400410022FDF7EBFE0DF103013046A9
:103C200001224FF47A73FEF73BFB20464FF400412C
:103C30000122FDF7DDFEA1208DF80300284640217A
:103C40000022FDF7D5FE20464FF400410022FDF78B
:103C5000CFFE0DF10301304601224FF47A73FEF7D7
:103C60001FFB20464FF400410122FDF7C1FEC82092
:103C70008DF80300284640210022FDF7B9FE2046BA
:103C80004FF400410022FDF7B3FE0DF10301304671
:103C900001224FF47A73FEF703FB20464FF40041F4
:103CA0000122FDF7A5FEDA208DF803002846402109
:103CB0000022FDF79DFE20464FF400410022FDF753
:103CC00097FE0DF10301304601224FF47A73FEF79F
:103CD000E7FA20464FF400410122FDF789FE122049
:103CE0008DF80300284640210022FDF781FE204682
:103CF0004FF400410022FDF77BFE0DF10301304639
:103D000001224FF47A73FEF7CBFA20464FF40041BC
:103D10000122FDF76DFE81208DF803002846402129
:103D20000022FDF765FE20464FF400410022FDF71A
:103D30005FFE0DF10301304601224FF47A73FEF766
:103D4000AFFA20464FF400410122FDF751FECF208B
:103D50008DF80300284640210022FDF749FE204649
:103D60004FF400410022FDF743FE0DF10301304600
:103D700001224FF47A73FEF793FA20464FF4004184
:103D80000122FDF735FED9208DF803002846402199
:103D90000022FDF72DFE20464FF400410022FDF7E2
:103DA00027FE0DF10301304601224FF47A73FEF72E
:103DB00077FA20464FF400410122FDF719FEF12069
:103DC0008DF80300284640210022FDF711FE204611
:103DD0004FF400410022FDF70BFE0DF103013046C8
:103DE00001224FF47A73FEF75BFA20464FF400414C
:103DF0000122FDF7FDFDDB208DF803002846402160
:103E00000022FDF7F5FD20464FF400410022FDF7AA
:103E1000EFFD0DF10301304601224FF47A73FEF7F6
:103E20003FFA20464FF400410122FDF7E1FD30202A
:103E30008DF80300284640210022FDF7D9FD2046D9
:103E40004FF400410022FDF7D3FD0DF10301304690
:103E500001224FF47A73FEF723FA20464FF4004113
:103E60000122FDF7C5FDA4208DF80300284640215E
:103E70000022FDF7BDFD20464FF400410022FDF772
:103E8000B7FD0DF10301304601224FF47A73FEF7BE
:103E900007FA20464FF400410122FDF7A9FDA620B4
:103EA0008DF80300284640210022FDF7A1FD2046A1
:103EB0004FF400410022FDF79BFD0DF10301304658
:103EC00001224FF47A73FEF7EBF920464FF40041DC
:103ED0000122FDF78DFD8D208DF80300284640213D
:103EE0000022FDF785FD20464FF400410022FDF73A
:103EF0007FFD0DF10301304601224FF47A73FEF786
:103F0000CFF920464FF400410122FDF771FD142046
:103F10008DF80300284640210022FDF769FD204668
:103F20004FF400410022FDF763FD0DF1030130461F
:103F300001224FF47A73FEF7B3F920464FF40041A3
:103F40000122FDF755FDAF208DF8030028464021E2
:103F50000022FDF74DFD20464FF400410022FDF701
:103F600047FD0DF10301304601224FF47A73FEF74D
:103F700097F920464FF400410122FDF739FD6420F6
:103F8000FDF71AFC4FF0100A002700BF47F0B00001
:103F90008DF803002846402100224FF00009FDF76C
:103FA00027FD20464FF400410022FDF721FD304659
:103FB000594601224FF47A73FEF772F920464FF406
:103FC00000410122FDF714FD02208DF80300284670
:103FD00040210022FDF70CFD20464FF40041002255
:103FE000FDF706FD3046594601224FF47A73FEF77D
:103FF00057F920464FF400410122FDF7F9FC28460D
:10400000402100228DF803A0FDF7F2FC20464FF47A
:1040100000410022FDF7ECFC3046594601224FF4E6
:104020007A73FEF73DF920464FF400410122FDF777
:10403000DFFC00BF2846402101228DF80380FDF7F8
:10404000D7FC20464FF400410022FDF7D1FC30465A
:10405000594601224FF47A73FEF722F920464FF4B5
:1040600000410122FDF7C4FC09F101004FFA80F97B
:10407000B9F1FF3FDEDC072F07F1010786D301B05E
:10408000BDE8F08F2DE9F04F84B047B2002F4FF01C
:1040900000074FF0000648BF01273F2988BF0126CF
:1040A0003743CDE902270A4630D1029971B36BB389
:1040B000029903EB020A0F18802F28BF8027A7EB75
:1040C000000940F2A407C2F200070744A7F1010B60
:1040D0006FF0700C4FF001081146BAF1400F28BF85
:1040E0004FF0400A0CEA01150BEB050601F007053D
:1040F00008FA05F5EF434D4616F801EF013D0EEACB
:1041000007043470F8D101318A45EBD82BB10299FC
:1041100019B10D9909B1039911B104B0BDE8F08F3F
:10412000029913440F18802F28BF8027402B28BFE7
:1041300040238742F1D0D9B29142EED0991AC9B248
:1041400040F2A4030139C2F200033C1AC90802F08C
:10415000070918440191D108C9F1080A5FFA84FEE1
:10416000009000204FF0000B039106E00BF1010BD3
:1041700001995FFA8BF08142CFD303994718072F3B
:10418000F4D802980D995FFA8BF300FB03100399A2
:10419000FE1F0B440099B9FA89F4B6FA86F6640951
:1041A000760901EBC3133443002604E0013676455B
:1041B00038BF082FDAD210F806C013F806800CFAC0
:1041C00009F545EA0805002C9D55EFD1855D9A1942
:1041D00092F8801025FA0AF5294382F88010E5E765
:1041E0003F2988BF70472DE9F04786B09146002AE5
:1041F0003FD0824680283CD899F80000C8B347F6E3
:1042000078680D460027C0F6000802AC564600BF8D
:10421000C1B20A2906D110355646BAF1800F22D90B
:1042200027E000BFF1B2792904D3E9B2F02920D305
:104230001035564641B2202911DB2038C0B208EBB8
:1042400000100021425CD243625401311029F9D19F
:10425000F0B2E9B2082210230094FFF713FF0836EA
:10426000BAF1800F05D80137F8B219F8000000281C
:10427000CED106B0BDE8F047704700003F2988BFA7
:1042800070472DE9F04381B09146AAB304468028D7
:1042900032D899F8000078B347F678680D460027C1
:1042A000C0F60008264600BFC1B20A2904D1103565
:1042B0002646802C1AD91FE0F1B2792904D3E9B23D
:1042C000F02919D31035264641B220290BDB2038BE
:1042D000C0B208EB001CF0B2E9B208221023CDF8FE
:1042E00000C0FFF7CFFE0836802C05D80137F8B2A2
:1042F00019F800000028D7D101B0BDE8F04370479D
:1043000081B02DE9F04787B01646824600200DF1B6
:104310000C090C46CDE90500CDE903000FAA48467B
:1043200031460F930292FBF7BBFF3F2C98BFBAF1C7
:10433000800F04D907B0BDE8F04701B070479DF881
:104340000C000028F6D047F678680026C0F6000872
:10435000554600BFC1B20A2906D110345546BAF1FC
:10436000800F1BD9E6E700BFE9B2792904D3E1B297
:10437000F029DFD31034554641B220290ADB20381A
:10438000C0B208EB0017E8B2E1B208221023009790
:10439000FFF778FE0835BAF1800FCBD80136F0B2BE
:1043A00019F800000028D5D1C4E70000F0B581B0AD
:1043B00040F2B047C2F20007387840F60004C4F279
:1043C0000104503804F580658DF80100284640212D
:1043D0000022FDF70DFB20464FF400410022FDF7BF
:1043E00007FB40F20456C2F200060DF1010130460F
:1043F00001224FF47A73FDF753FF20464FF400413A
:104400000122FDF7F5FA02208DF80200284640212E
:104410000022FDF7EDFA20464FF400410022FDF79F
:10442000E7FA0DF10201304601224FF47A73FDF7ED
:1044300037FF20464FF400410122FDF7D9FA102042
:104440008DF80300284640210022FDF7D1FA2046CE
:104450004FF400410022FDF7CBFA0DF10301304685
:1044600001224FF47A73FDF71BFF20464FF4004101
:104470000122FDF7BDFA284640210122FDF7B8FAD6
:1044800020464FF400410022FDF7B2FA387840F29E
:10449000A401C2F2000101EBC01130468022FDF7F9
:1044A000D3FF3878013000F00700387001B0F0BD5C
:1044B000EFF30980BFF36F8F0D4B1A6820E9F00FFF
:1044C00010602DE908404FF0500080F3118801F092
:1044D00091FB4FF0000080F31188BDE80840196897
:1044E0000868B0E8F00F80F30988BFF36F8F70475A
:1044F0005C070020B0B540F23865C2F2000568786C
:10450000012818BFB0BDA86A012801D9FF2103E026
:1045100014D195F82C10013940F25C52C2F200021D
:10452000136801381963D5E90634516113F58071B8
:1045300044F10002C5E90612A862B0BD40F25C5425
:10454000C2F2000420460021FEF73AFE2046FEF7A4
:1045500027F920680122C16821F00101C16040F6FD
:104560000040C4F201004FF40041FDF741FA95F814
:104570002C00D5E90612401842F10001C5E90601F8
:10458000B0BD000070470000406A01684A6822F030
:1045900003024A60416D41F010014165012180F83C
:1045A0005110FDF7CFBD0000406AFDF7C3BF00000A
:1045B000B0B582B0446A0546FDF720FA296809685B
:1045C000890638D40546206801224168642321F019
:1045D00020014160416821F0020141602046022132
:1045E000009500F02FF838B920468021002264237E
:1045F000009500F027F838B1606D40F0200060654C
:10460000606D40F020006065A06838B9002001901E
:104610002068C16801918068019001980020E086BF
:10462000012084F85100606D28B1204602B0BDE839
:10463000B040FDF787BD204602B0BDE8B040FDF7B1
:104640006FBF00002DE9F04782B00A9C98461546DE
:104650000E468146FDF7D2F9201A00EB0804FDF75B
:10466000CDF940F20001C2F200010968C1F3CB317B
:1046700061430191D9F8001089683140891BB1FA72
:1046800081F14909A94203D1002002B0BDE8F087B9
:10469000824608F1010709E0D9F80000806830403F
:1046A000801BB0FA80F04009A842EDD0002FF3D073
:1046B000FDF7A4F9A0EB0A00A04207D201980199E6
:1046C000002808BF0446481E0190E5E7D9E900012B
:1046D0004268B1F5827F22F0E00242600BD1D9F846
:1046E0000810B1F5004F02D0B1F5806F03D1016819
:1046F00021F040010160D9F82810B1F5005F07D121
:10470000016821F400510160016841F40051016029
:10471000012089F85100002089F85000032002B0E0
:10472000BDE8F0870000000000000000000000006D
:10473000074B19680868B0E8F00F80F30988BFF3E9
:104740006F8F4FF0000080F311884EF00D0E704710
:104750005C07002040F2AC40C2F2000000680A2171
:1047600000F0E8F940F6B83000F0CCF8FFF746F872
:104770000120FFF757F80020C4F27020FFF778F807
:104780004FF4C8500021FFF753F8FFF7C1F800BFFE
:10479000FEE7000040F2A45040F60044C2F20000E0
:1047A0003C21C4F20104FEF7B7F940F2A846C2F278
:1047B00000060CE000F0D0F8401BB0F57A7F4FF017
:1047C000020038BF012030700A2000F09BF820461C
:1047D0000121FDF707F90128F6D100F0BDF80546E3
:1047E0000A2000F08FF820460121FDF7FBF8012890
:1047F000EAD100BF20460121FDF7F4F80128D9D104
:104800000A2000F07FF800F0A7F8401BB0F57A7F8F
:10481000F0D9CFE780B54EF21000CEF2000000686C
:1048200001F0CAFE012808BF80BDBDE8804001F04C
:1048300097BA00007047000040F25C50C2F20000DE
:10484000FEF7CAB940F2EC50C2F20000FEF7C4B95C
:1048500080B500F0ABFD002808BF80BDD0E9001096
:10486000BDE8804008470000FEE7000090B0FDF77B
:10487000D9F806AC20462821FBF771FD01200690EF
:104880000A904FF4E01000254FF4803102260F907B
:1048900020460595CDE90355CDE90155CDE907152C
:1048A000CDE90D61FDF7B2FA18B1EFF3108072B6E1
:1048B000FEE70F20CDE901064FF48060CDE9040545
:1048C00001A802210395FDF791F920B1EFF31080C3
:1048D00072B600BFFEE7FEF7A7FDFEF747FDFEF745
:1048E00011FEFEF735FEFEF7DBFEFFF7A9F8FFF736
:1048F0009DF800F039F8FEF753FD00F049F800BFCD
:10490000FEE70000EFF3058100291CBF6FF00500F2
:104910007047002804BF0020704780B500F08CFF6E
:10492000002080BDEFF3058100291CBF6FF005005A
:10493000704710B582B0044601F052FE0146019066
:1049400084426FF0030005D0611A03D401A800F07F
:10495000C9FF002002B010BDEFF30580002808BF9A
:1049600001F03EBE01F042BEEFF3058000281CBFFF
:104970006FF00500704740F2A440C2F200000168E9
:10498000002911BF4FF0FF30012101600020704766
:10499000EFF3058000281CBF6FF00500704740F260
:1049A000A440C2F20000016801291CBF4FF0FF3093
:1049B000704780B54EF61F51CEF2000100220A70FA
:1049C0000221016001F0BCF8002080BD70B584B008
:1049D0000B46002100280391EFF3058150D00029F8
:1049E0004ED142B3D2F818E0BEF1000F08BF4FF02D
:1049F000180EBEF1380F1BD81179C90718D15569A7
:104A0000946811684FEA950C002D08BF4FF0800C98
:104A100044B1D6685C2E04D31669002E18BF002D51
:104A200020D10CB9D468C4B1002500245DB91DE0C3
:104A3000002004B070BD012400214FF0180E4FF08B
:104A4000800C002595B1946812690294CDE900E2CA
:104A5000624601F03BFD039012E01469B4FA84F45D
:104A60006409EEE700240125002DECD144B103AC2C
:104A70001FFA8CF2CDE900E401F0BAFC012802D162
:104A8000039804B070BD0020E5E700002DE9F04177
:104A900082B00D46044600284FF00000EFF3058178
:104AA0003DD0E1BB08201E46174600F0B1FBE0B345
:104AB000002D804618BF0125C8E90047BEB1D6E9E0
:104AC00002123068C1B12B2A4FF000024FF00001F2
:104AD00088BF0122B2B969B144F65107C0F6000798
:104AE00001212A464346009701F072FF16E001219A
:104AF000002004E0002011E0B2FA82F1490900220E
:104B0000002AE8D0B76844F65106C0F60006012135
:104B10002A464346CDE9006701F08EFF10B102B08E
:104B2000BDE8F081404600F097FD002002B0BDE8EE
:104B3000F08100000A46EFF3058100291CBF6FF0E9
:104B400005007047002804BF6FF00300704780B570
:104B500082B04FF0000C04210023CDF800C001F01A
:104B6000EFFF013818BF6FF0020002B080BD0000F7
:104B70002DE9F047044600F033FD41F2E070C2F247
:104B80000000016840F25C7701310160C2F2000769
:104B9000396841F6747A40F27476C2F2000AC2F2C1
:104BA000000651B1DAF8000000283ED13868E16A09
:104BB000C06A884298BF3C6037E03C6000680128CA
:104BC00033D10025701900F0CFFC1435B5F58C6F8A
:104BD000F8D141F6D868C2F20008404600F0C4FCA3
:104BE00041F6EC69C2F20009484600F0BDFC41F60E
:104BF0002070C2F2000000F0B7FC41F69470C2F2DF
:104C0000000000F0B1FC41F68070C2F2000000F03C
:104C1000ABFC40F26470C2F20000C0F8008040F2C9
:104C20006C70C2F20000C0F8009041F2EC70C2F269
:104C30000000016801310160616441F2F071C2F26B
:104C40000001E06A0A68904288BF086000EB8000BB
:104C500006EB8000211D00F0B5FC00F0E5FCDAF861
:104C6000000088B13868E16AC06A884228BFBDE8A0
:104C7000F0874EF60450CEF200004FF080510160F4
:104C8000BFF34F8FBFF36F8FBDE8F08770B582B071
:104C900000F0A6FC41F6AC76C2F20006306850BBCC
:104CA00041F6AC64C2F20004204600F05DFC41F61F
:104CB000C065C2F20005284600F056FC40F2607064
:104CC000C2F20000046040F27070C2F2000040F2D4
:104CD000686240F2087305600025C2F20002C2F269
:104CE00000030A201021009501F052F8306010B145
:104CF00003A100F069FD02B0BDE8704000F094BC73
:104D0000546D72510000000041F2E47540F2747A73
:104D10004EF6045841F6947741F2E076C2F200056F
:104D2000C2F2000ACEF200084FF08059C2F200072A
:104D3000C2F2000603E000BF204600F08DFC2868A8
:104D4000C8B100F04DFCF868C468201D00F0DEFB1F
:104D500030680138306028680138286000F064FC51
:104D600094F859000228EAD00128E5D070B9206BE8
:104D700000F072FCE0E7DAF800000228DFD3C8F8A0
:104D80000090BFF34F8FBFF36F8FD8E74FF0500005
:104D900080F31188BFF36F8FBFF34F8FFEE70000E2
:104DA00006480068006880F3088862B661B6BFF301
:104DB0004F8FBFF36F8F00DF00BF000008ED00E0F2
:104DC0002DE9F04F85B0824601F00AFC40F2587997
:104DD000C2F20009D9F800100546884249D240F2D3
:104DE0006074C2F2000420680168002943D041F6D3
:104DF000AC7BC2F2000B08E07860206831463F616E
:104E000000F0C2FB20680168A9B3C068C768D0F889
:104E100000803E1D304600F079FB396A38468847ED
:104E200097F828004007EDD5B86940444045E3D8DD
:104E30008FB3DBF8000078B10020CDE901080397BB
:104E400001F0BAFBDBF8000001A90022002301F009
:104E50000DF80028D6D102E000200028D2D14FF072
:104E6000500080F31188BFF36F8FBFF34F8F00BFE7
:104E7000FEE7002007E040F27071C2F200010A680C
:104E8000086001202260CAF800002846C9F80050D6
:104E900005B0BDE8F08F4FF0500080F31188BFF3EC
:104EA0006F8FBFF34F8F00BFFEE7000081B000207F
:104EB000009040F23C00C2F2000000684FF0500148
:104EC00081F31188BFF36F8FBFF34F8F013001D093
:104ED000FEE700BF00980028FCD001B0704700003A
:104EE0008AB040F2607B40F2707A41F6AC75C2F253
:104EF000000B02ACC2F2000AC2F200050DF1040977
:104F0000DBF8000007681FB1C068D0F8008001E03E
:104F10004FF0000800F066FE2046FFF751FF0299AF
:104F200011B101F0BBFC83E0E7B140451AD356460E
:104F3000824601F0B3FCDBF80000C068C76807F1E7
:104F4000040B584600F0E2FA97F8280041070CD409
:104F500040F2607B00F0FA00C2F2000B87F82800F4
:104F6000B2465CE0B7B100221AE0B9693F6101EBDB
:104F700008005045786029D9C24501D2404533D256
:104F800040F26072C2F2000210685946934600F087
:104F9000FBFAE5E7DAF800100968B1FA81F14A098D
:104FA0002B68A8EB0001184600F022FC01F076FC0B
:104FB00000283DD14EF60450CEF200004FF0805153
:104FC0000160BFF34F8FBFF36F8F31E0AAEB080092
:104FD000884209D230685946B24600F0D5FA40F20C
:104FE000607BC2F2000B1AE0002F00F0C28028683C
:104FF000B24660B10020CDE90608089701F0DCFA5E
:10500000286806A90022002300F030FF00E00020FD
:1050100040F2607BC2F2000B002800F0B480396AD5
:105020003846884704E0DBF8000000F0ADFA00BF26
:1050300028682146002201F0C1F800283FF460AF43
:105040000298B0F1FF3F03DCDDE9032005999047AA
:1050500002980028ECD4049F786910B1381D00F044
:1050600055FA4846FFF7ACFE02990929E0D8DFE877
:1050700001F00505054F395605054F3997F82810F9
:10508000039ABE6941F0010187F82810B318394628
:1050900041F8043F83423F6104D99042C3D2934216
:1050A00003D2C0E7801AB0422DD3396A3846884708
:1050B00097F828004007BBD5002F50D02868B0B320
:1050C0000398B969089708440021CDE9061001F05A
:1050D00073FA286806A90022002300F0C7FE002802
:1050E000A6D128E097F8281041F00102039987F82B
:1050F0002820B96149B30A18394641F8042F824281
:105100003F613FF690AFDAF8000000F03DFA8FE71C
:1051100097F8280000F0FE0087F8280088E797F845
:1051200028008107F6D4384600F096FA80E7002080
:1051300000287FF47DAF4FF0500080F31188BFF35B
:105140006F8FBFF34F8F00BFFEE74FF0500080F32B
:105150001188BFF36F8FBFF34F8F00BFFEE74FF093
:10516000500080F31188BFF36F8FBFF34F8F00BFE4
:10517000FEE74FF0500080F31188BFF36F8FBFF34D
:105180004F8F00BFFEE74FF0500080F31188BFF350
:105190006F8FBFF34F8F00BFFEE70000F0B581B007
:1051A000044600F01DFA94F94560012E0FDB04F16E
:1051B000240500BF286850B1284601F027FB0028CD
:1051C00018BF00F015FC70B2013E0128F2DCFF268A
:1051D00084F8456000F028FA00F002FA94F944706F
:1051E000012F0EDB04F11005286850B1284601F0AC
:1051F0000DFB002818BF00F0FBFB78B2013F01282F
:10520000F2DC84F8446001B0BDE8F04000F00CBA74
:10521000F0B581B0044600F0E5FC40F26871C2F2DE
:1052200000010868002841F6D460C2F2000028D1CD
:1052300040F6D432C2F20002D31D560702F5406692
:1052400018BF23F0070241F67873C2F2000300256D
:10525000C3E9002526F00703A3F108060E6043E921
:105260000255B31A0E68C2E9006341F60872C2F231
:105270000002136041F60072C2F2000213600122C4
:1052800002700278002A18BF4FF00042224238D143
:105290003CB162071ABF24F0070202F1100408347F
:1052A00000E0002441F6007EC2F2000EDEF800208D
:1052B000631E934225D241F67873C2F200031E6842
:1052C0007568A54207D200BF326822B155683346DF
:1052D0001646A542F8D30A68964212D0D3F800C009
:1052E00037682A1B112A1F603FD333195D0719D075
:1052F0004FF0500080F31188BFF36F8FBFF34F8FD3
:10530000FEE7002401F0CAFA600708D04FF0500011
:1053100080F31188BFF36F8FBFF34F8FFEE72046F6
:1053200001B0F0BD41F67875C2F200055A607460B4
:105330002C462D689D42FBD36268A7189F4203D17B
:105340005B681A44234662605A689F18AF4201D0D6
:10535000294606E009688D4203D0D5E900152A44A4
:105360005A609C42196018BF236041F60871726848
:10537000DEF80030C2F200010C689A1AA242CEF8A0
:10538000002038BF0A60007841F614727168C2F2DA
:105390000002002818BF41F00041136800200CF102
:1053A0000804C6E90001581C1060ABE740B110B515
:1053B000044600F015F9E46900F036F9204610BD06
:1053C0004FF0500080F31188BFF36F8FBFF34F8F02
:1053D000FEE70000034644F6AD60C0F600004FF063
:1053E000807C21F0010103E90310A3F1400043F8A0
:1053F000202C704782B040F20400C2F2000040F25C
:10540000B845071DC2F200050FF2E8090FF2F00AD5
:1054100005E000BFFEF7CAFF701DFFF783FA4FF0EB
:105420000008FFF799FA06463C4606E0FEF726FF1D
:105430000C34BBF1040FD8460ED095F9000008F1EA
:10544000010B4FEA081122688345C9B24FF00000F2
:10545000ECD1FEF7C5FEEBE7FCF754F829780144E0
:1054600048B20428297001DD002003E0B0F1FF3FBD
:1054700001DC04202870FEF791F948F2F04201287F
:10548000C0F6000206D0FEF789F938B948F200529A
:10549000C0F6000238200021FEF7F0FEFEF7A0F96A
:1054A00002F070F903460C46382011214A46CDE936
:1054B0000034FEF725FFFEF777F902F063F90346A3
:1054C0000C46382021215246CDE90034FEF718FF62
:1054D000FCF726F801289DD195F9000040F204015F
:1054E00000EB4000C2F2000101EB800050F8040C18
:1054F00080478FE72520342E32667261642F6D005D
:105500002520342E3266726164000000D0E9013239
:1055100001699A60D1F804C082688445536008BF6D
:105520004A60002202610868013808600868704714
:1055300041F6F413C2F20003036041F2F470C2F2C8
:1055400000000860802010607047000041F6506342
:10555000C2F20003036041F65020C2F2000008606E
:105560004FF48070106070474FF0FF31024642F8F0
:10557000081F00214260C0E903220160704700005B
:10558000002101617047000080B5D1F800C01CF116
:10559000010207D000F108039E465B681A68624565
:1055A000FAD901E0D0F810E0DEF8042008614A6082
:1055B0009160C1F808E0CEF8041001680131016083
:1055C00080BD0000D0F800C0436808619A684B6055
:1055D0008A609A68996051600CF10101016070471E
:1055E0004FF0500080F31188BFF36F8FBFF34F8FE0
:1055F00040F23C00C2F2000001684A1C026001B1A6
:1056000070474EF60450CEF200000068000608BF56
:1056100070474FF0500080F31188BFF36F8FBFF3D6
:105620004F8F00BFFEE7000040F23C00C2F20000D6
:10563000016839B10139016018BF7047002080F35B
:10564000118870474FF0500080F31188BFF36F8FBF
:10565000BFF34F8FFEE70000B0B5002808BFB0BD14
:1056600041F6D461C2F20001097850F8042C0029F7
:1056700018BF4FF0004111420DD0A0F1080423687B
:105680009BB14FF0500080F31188BFF36F8FBFF3D1
:105690004F8F00BFFEE74FF0500080F31188BFF33B
:1056A0006F8FBFF34F8F00BFFEE722EA010140F882
:1056B000041C054600F096FA41F60071C2F20001A2
:1056C00055F8040C0B682A461844086041F67871B6
:1056D000C2F2000108460968A142FBD34368C5181D
:1056E000A54204D152F8042C04461A44426063686F
:1056F000E2188A4201D00A460AE040F26872C2F219
:1057000000021268914203D0D1E90021194461607E
:10571000A042226018BF046041F61870C2F2000077
:10572000016801310160BDE8B04001F0B7B8000088
:105730004EF21000CEF2000000210160816040F2C4
:105740000001C2F20001096844F6D352C1F26202BC
:10575000A1FB02124FF0FF3101EB921141600721D2
:1057600001607047EFF30580102814D34EF2F0313A
:10577000CEF20001405C41F2D471C2F2000109781E
:10578000884208D24FF0500080F31188BFF36F8F2A
:10579000BFF34F8FFEE74EF60C50CEF2000041F201
:1057A000D8710068C2F20001096800F4E060884224
:1057B00098BF70474FF0500080F31188BFF36F8F90
:1057C000BFF34F8FFEE7000041F6347C0022C2F2A7
:1057D000000C03E00132082A08BF70475CF8323041
:1057E000002BF7D10CEBC2034CF832105860704715
:1057F00070B515460E460446FFF7F2FE94F84400D5
:10580000FF2804BF002084F8440094F84500FF28D6
:1058100004BF002084F84500FFF706FFA06B28B9FD
:1058200004F1240031462A4600F036F92046BDE84E
:105830007040FFF7B3BC000070B5002845D041F2BE
:10584000E871C2F200010A684AB14FF0500080F3DB
:105850001188BFF36F8FBFF34F8F00BFFEE70A6859
:1058600040F25C7501320A6041F6A871C2F2000193
:10587000C2F200050C682968064604310846FFF7A5
:1058800045FE2868A419446009D340F26C70C2F246
:105890000000006829680431FFF776FE10E040F24E
:1058A0006470C2F20000006829680431FFF76CFEE2
:1058B00041F60C70C2F2000001688C4238BF0460EF
:1058C00000F0ECFF002818BF70BD4EF60450CEF279
:1058D00000004FF080510160BFF34F8FBFF36F8F17
:1058E00070BD000070B580B1C9B141F2E872C2F27A
:1058F00000021368EBB14FF0500080F31188BFF342
:105900006F8FBFF34F8F00BFFEE74FF0500080F363
:105910001188BFF36F8FBFF34F8F00BFFEE74FF0CB
:10592000500080F31188BFF36F8FBFF34F8F00BF1C
:10593000FEE713680133136041F6A873C2F2000357
:105940001A680568AA42294402D2A94202D31CE07F
:10595000A94201D3914218D940F25C750160C2F2AC
:1059600000051C6828688E1A0430FFF7CFFD2868F0
:10597000A41944600BD340F26C70C2F200000068BE
:1059800029680431FFF700FE12E0016010E040F2E8
:105990006470C2F20000006829680431FFF7F4FD6A
:1059A00041F60C70C2F2000001688C4238BF0460FE
:1059B00000F074FF002818BF70BD4EF60450CEF200
:1059C00000004FF080510160BFF34F8FBFF36F8F26
:1059D00070BD000041F61071C2F20001096801605B
:1059E00041F6A871C2F200010968416070470000E9
:1059F00041F6B470C2F2000001210160704700005E
:105A000070B510B340F25C75C2F200050C4629680F
:105A10001831FFF7B9FD41F6A870C2F20000066820
:105A200028680430FFF772FD601C18D02868A4199C
:105A300044601ED340F26C70C2F200000068296816
:105A40000431BDE87040FFF79FBD4FF0500080F378
:105A50001188BFF36F8FBFF34F8F00BFFEE7286839
:105A6000011D41F68070C2F20000BDE87040FFF7F2
:105A7000A9BD40F26470C2F20000006829680431D8
:105A8000FFF782FD41F60C70C2F2000001688C4203
:105A900038BF046070BD0000F0B581B020B340F2A3
:105AA0005C76C2F200060C46316815461831FFF7E5
:105AB00089FD41F6A870C2F20000002D18BF4FF01A
:105AC000FF34076830680430FFF720FDADB1601C7B
:105AD00013D13068011D41F68070C2F2000001B0A0
