:020000040800F2
:1000000048250020B5010008D9220008991F0008E2
:10001000D5220008BD0300083532000800000000AA
:10002000000000000000000000000000C1310008D6
:10003000CD03000800000000A12F000805320008D1
:10004000CF010008CF010008CF010008CF01000850
:10005000CF010008CF010008CF010008CF01000840
:10006000CF010008CF010008CF010008CF01000830
:10007000CF010008C1030008CF010008CF0100082C
:10008000CF010008CF010008CF010008CF01000810
:10009000CF010008CF010008CF010008CF01000800
:1000A000CF010008CF010008CF010008CF010008F0
:1000B000CF010008CF01000829320008CF01000855
:1000C000CF010008CF010008CF010008CF010008D0
:1000D000CF010008CF010008CF010008CF010008C0
:1000E000CF010008CF010008CF01000800F002F89E
:1000F00000F050F814A696E8000CB244B344DA4578
:1001000001D100F047F8BAE80F000FA696E83000DA
:10011000A5EB040504EB0607AAEB0704A7F101070A
:100120004FEA15154FEA3414A4F10104AC4201D38F
:1001300000F030F813F0010F18BFFB1A43F0010371
:1001400000F001F8DBE7184734580000545800006D
:10015000103A24BF78C878C1FAD8520724BF30C8F3
:1001600030C144BF04680C60704700007047000055
:100170000023002400250026103A28BF78C1FBD8B0
:10018000520728BF30C148BF0B6070471FB51FBD65
:1001900010B510BD00F0D7F81146FFF7F7FF03F0D8
:1001A0004BF800F0F5F803B4FFF7F2FF03BC00F0E2
:1001B000FDF800000948804709480047FEE7FEE7D0
:1001C000FEE7FEE7FEE7FEE7FEE7FEE7FEE7FEE707
:1001D00004480549054A064B7047000025320008CF
:1001E000ED000008481F002048250020482100207D
:1001F00048210020032A40F2308010F0030C00F068
:10020000158011F8013BBCF1020F624498BF11F850
:1002100001CB00F8013B38BF11F8013BA2F1040209
:1002200098BF00F801CB38BF00F8013B11F0030381
:1002300000F05780083AC0F0088051F8043B083AB3
:1002400051F804CBA0E80810F5E7121D5CBF51F887
:10025000043B40F8043BAFF30080D20724BF11F801
:10026000013B11F801CB48BF11F8012B24BF00F866
:10027000013B00F801CB48BF00F8012B704702F0AA
:10028000FF0343EA032242EA024200F002B84FF0C1
:10029000000200B5134694469646203922BFA0E8D6
:1002A0000C50A0E80C50B1F12001BFF4F7AF0907E2
:1002B00028BFA0E80C5048BF0CC05DF804EB8900D3
:1002C00028BF40F8042B08BF704748BF20F8022B16
:1002D00011F0804F18BF00F8012B7047704770472E
:1002E000704710B5203AC0F00B80B1E81850A0E874
:1002F0001850B1E81850A0E81850203ABFF4F5AFF4
:100300005FEA027C24BFB1E81850A0E8185044BF4F
:1003100018C918C0BDE810405FEA827C24BF51F8BC
:10032000043B40F8043B08BF7047D20728BF31F8B0
:10033000023B48BF11F8012B28BF20F8023B48BF01
:1003400000F8012B7047754600F02CF8AE4605000A
:100350006946534620F00700854618B020B5FFF7E0
:1003600037FFBDE820404FF000064FF000074FF088
:1003700000084FF0000BAC46ACE8C009ACE8C0097F
:10038000ACE8C009ACE8C00921F007018D46704710
:1003900010B50446AFF300802046BDE81040FFF7DB
:1003A00002BF0000004870471000002001491820DB
:1003B000ABBEFEE72600020070470000FEE700002B
:1003C00040F28450C2F2000000F008B8704700000C
:1003D000EFF3108072B600BFFEE7000010B5D0E961
:1003E0000FCE0168DCF800300A6823FA0EF35C07D0
:1003F0002AD512F0040427D00A68920603D40A68AA
:1004000022F004020A602F22C4F20202914240F25A
:100410000402C4F202025BDD3023C4F202039942FB
:1004200072D04423C4F20203994273D05823C4F219
:100430000203994240F07A804FF480231360C16A2E
:10044000002940F098806FE09C0727D512F0020445
:1004500024D00A68920606D40A6822F00A020A60CA
:10046000012280F821202F22C4F20202914240F2A0
:100470000402C4F202023BDD3023C4F202039942BB
:1004800060D04423C4F2020399425FD05823C4F2DF
:100490000203994260D14FF4003365E01B0743D556
:1004A00012F0080208BF10BD0A6822F00E020A60AE
:1004B000012101FA0EF2CCF80420816380F82110AA
:1004C000016B0022002980F8202054D12CE000BFCD
:1004D0000823C4F20203994222D01C23C4F202036F
:1004E000994223D140231360C16A002943D11BE004
:1004F0000823C4F2020399422CD01C23C4F2020345
:10050000994229D120232FE04FF480631360C16A00
:1005100089BB09E04FF480431360C16A59BB03E013
:1005200004231360C16A31BB10BD00BF02F168042F
:100530004FF08063A14208BF4FF480031360C16A8B
:10054000C9B9F1E74FF400730EE000BF4FF4005358
:100550000AE000BF022307E002F168044FF00073D5
:10056000A14208BF4FF400131360816A00220029E2
:1005700080F82020D8D0BDE8104008470146002868
:100580004FF0010008BF70472DE9F043D1F800C0DB
:100590004FF6F873CBF6FD734CF6CD426344CCF6C0
:1005A000CC42A3FB02236FF0030202EA9302002372
:1005B000C4F2020301F10C08C1E90F320222D1E9B1
:1005C000019E98E8F00181F82120DCF8002043F634
:1005D000F0739A4342EA090242EA0E0222432A4396
:1005E00032433A4342EA0802CCF8002000228A63F0
:1005F00081F8210081F820200020BDE8F0437047F9
:1006000090F820C0BCF1010F04BF02207047F0B584
:100610004FF0010E80F820E090F821C0BCF1010FEE
:1006200026D14FF0020C80F821C04FF0000CC0F82A
:1006300038C0D0E900C4C56AC66BDCF80070102C65
:1006400027F00107CCF80070006C0EFA00F0706023
:100650000846CCF8043004BF10460A46CCF808001F
:10066000CCF80C20DCF8000045B140F00E000DE0A5
:10067000002180F820100220F0BD00BF20F004000F
:10068000CCF80000DCF8000040F00A00CCF80000D4
:10069000DCF8000040F00100CCF800000020F0BDC4
:1006A000B0B5044600F01EF9054640F20000C2F263
:1006B00000000078611C18BF044400BF00F012F96C
:1006C000401BA042FAD3B0BD2DE9F04F82B00E68B6
:1006D000002E00F0FD8041F20042C4F2010204232A
:1006E00040F2004E904208BF03234FF6FF7CC4F255
:1006F000010E009300240123C1F2100C4FF0000AF8
:100700004FF000094BE000BF41F20002C4F20102C9
:10071000009F904208BF022704F00C030F229A406A
:100720002BEA020207FA03F34FEA9A051A4346F846
:1007300025204E6840F20C45F202DEF8082054BF36
:1007400022EA080242EA0802C4F20105CEF80820B3
:100750002A68B30254BF22EA080242EA08022A6069
:10076000B303DEF8042054BF22EA080242EA08027A
:10077000F303CEF80420DEF800204FF0010354BF4D
:1007800022EA080242EA0802CEF800200E680AF1C6
:10079000010A36FA0AF204F1040400F0998003FA1F
:1007A0000AFB16EA0B08F1D04E68664512DC122EE1
:1007B00056D8DFE806F0350B4D495555555555557A
:1007C0005555555555555545510000BFD1F80C901C
:1007D00046E000BF4FF6FF72C1F2210296420FDCE5
:1007E0000022C1F2110296421AD00022C1F2120276
:1007F000964215D00022C1F22102964210D02FE07D
:100800000022C1F2220296420AD00022C1F2310235
:10081000964205D00022C1F23202964220D100BF9A
:100820008A684AB1012A14BFC0F814B0C0F810B0E9
:100830004FF0080914E000BF4FF0040910E000BFBA
:10084000CA6802F104090BE04FF0000908E000BF9C
:10085000CA6802F1080903E0CA6802F10C0900BF86
:1008600002462646B8F5807F24BF0432203E176832
:100870000F25B54027EA050509FA06F63543156048
:10088000CA79D2067FF582AF41F21803C4F202039F
:100890001A68AEF57E7642F001021A601A6802F01C
:1008A00001020192019A2AF0030256F802B040F6C2
:1008B0000002C4F20102904208D040F60042C4F2A5
:1008C000010290427FF420AF012725E7002723E7AC
:1008D00002B0BDE8F08F0000002A08BF09040161E2
:1008E0007047000041F64800C2F2000000687047FF
:1008F00040F2000041F64801C2F20000C2F20001DD
:1009000000780A68104408607047000080B542F221
:100910000000C4F20200016841F0100101600320F0
:1009200000F0C8F80F2000F005F800F05DF8002096
:1009300080BD0000B0B586B041F21C01C4F20201D6
:100940000A68044642F004020A60096801A801F03E
:10095000040101910199694600F09AF9049D002D66
:1009600018BF012500F0B6F94DF68361A840C4F226
:100970001B31A0FB01014FF0FF3000EB914140F231
:10098000B06040F60002C2F20000C4F2000240F281
:10099000E7330025C0E90021C0E902530561856104
:1009A00000F040FE10B106B0B0BD00BF40F2B06034
:1009B000C2F2000000F0CCFE0028F4D11E2000F0AE
:1009C0003BF80F2C0CD81E202146002200F046F8E0
:1009D00040F204010020C2F200010C6006B0B0BD7C
:1009E000012006B0B0BD000080B582B041F2180011
:1009F000C4F202000168002241F0010101600168B7
:100A000001F0010101910199416841F0805141607B
:100A100040680F2100F08050009000986FF00100B6
:100A200000F01CF80420C4F201000168022262F305
:100A30001A61016002B080BD002848BF704700F015
:100A40001F01012202FA01F11C2202EAD0004EF23B
:100A50000012CEF2000281507047000010B54EF631
:100A60000C5CCEF2000CDCF80030C3F3022E8EF0EA
:100A70000704042C28BF0424BEF103034FF0FF3EFB
:100A80000EFA04F438BF0023A14399400EFA03F391
:100A90009A43114300F00F0200F160430901043A48
:100AA00003F564436244002848BF02F10C03197047
:100AB00010BD00004EF60C51CEF200010A684FF650
:100AC000FF031A4060F30A2242F0806040F0FD709C
:100AD00008607047002804BF012070472DE9F043EB
:100AE00081B042F20008C4F202080446D8F80000BF
:100AF0000D4600F0070088420CD2D8F8000020F024
:100B000007002843C8F80000D8F8000000F00700EC
:100B1000A8426CD1206841F204098107C4F202099D
:100B200017D5410705D5D9F8001041F4E061C9F89F
:100B30000010010705D5D9F8001041F46051C9F83B
:100B40000010D9F80010A26821F0F0011143C9F893
:100B50000010C00742D1D8F8000000F00700A842FA
:100B60000CD9D8F8000020F007002843C8F800008E
:100B7000D8F8000000F00700A84238D120684107EB
:100B800007D5D9F80010E26821F4E0611143C9F8F3
:100B90000010000708D5D9F80000216920F4605042
:100BA00040EAC100C9F80000D9F8002002F00C00AA
:100BB000082841F20020C0F27A004DD145F62C13EE
:100BC000C2F38341C0F60003595CD20338D440F627
:100BD0000010C0F23D0048433EE000BF606859F895
:100BE000041C022808D0012826D1890306D401203C
:100BF00001B0BDE8F08300BF8901F8D5D9F8001035
:100C000021F003010843C9F80000FFF76BFE064618
:100C100041F28837D9F80000616800F00C00B0EBB1
:100C2000810F98D0FFF75EFE801BB842F2D90320F7
:100C300001B0BDE8F08300BF8907D8D5DEE700BF6B
:100C4000D9F8002045F21433C2F34042C0F6000345
:100C50009A5C4843B0FBF2F0D9F8001045F2FC2250
:100C6000C1F30311C0F60002515C40F2080220FA01
:100C700001F140F20400C2F200000068C2F200027A
:100C80001160FFF757FE002001B0BDE8F0830000BF
:100C90000F22026041F20402C4F20202136803F060
:100CA00003034360136803F0F0038360136803F4E5
:100CB000E063C36012684FF4E06303EAD2020261AA
:100CC00042F20000C4F20200006800F00700086071
:100CD0007047000040F2080041F20401C2F2000037
:100CE000C4F202010068096845F20C32C1F3022126
:100CF000C0F60002515CC84070470000002804BFE5
:100D0000012070472DE9F04182B00446007841F29D
:100D10000006C007C4F202060CD0706800F00C0098
:100D2000042840F081803068800303D56068002883
:100D300000F04681207880071BD5706810F00C0FFA
:100D400009D0706800F00C00082840F087807068B7
:100D5000C00300F183803068800703D52069012833
:100D600040F02E813068616920F0F80040EAC1004F
:100D700030602078000713D4207840072CD4E56930
:100D8000002D00F01881706800F00C00082840F079
:100D9000A780012D40F00481012002B0BDE8F08160
:100DA000A069002800F084800020C4F242200121C4
:100DB000C0F88014FFF796FD054600BF706A8007F3
:100DC00000F1B280FFF78EFD401B0228F6D9032008
:100DD00002B0BDE8F08100BFF0695FEAC00808D446
:100DE000F06940F08050F061F06900F080500090B0
:100DF000009847F20007C4F200073868C00549D4DC
:100E0000386840F480703860FFF76CFD054600BF1D
:100E10003868C0053ED4FFF765FD401B6428F7D94C
:100E2000032002B0BDE8F081706800F00C000828D3
:100E300003D17068C0033FF576AF61683068002960
:100E400000F00C81B1F5A02F00F00081B1F5803FDA
:100E500040F01A8140F480301CE100BF2069002876
:100E600040F20000C4F2422000F0888001210160BD
:100E7000FFF738FD054600BF306880073FF572AFC9
:100E8000FFF730FD401B0228F6D9032002B0BDE871
:100E9000F08100BFE168306A002900F09D800529DB
:100EA00000F09280012940F0AF8040F00100B1E0F5
:100EB0000020C4F242200021C0F88014FFF712FD88
:100EC000054600BF706A80077FF556AFFFF70AFD41
:100ED000401B0228F6D9032002B0BDE8F08100BF14
:100EE0000027C4F2422700203866FFF7FBFC022DE2
:100EF00005460DD13068800140F1DE80FFF7F2FC3D
:100F0000401B02284FF00300F4D902B0BDE8F08185
:100F1000306880014FD5FFF7E5FC401B02284FF0F9
:100F20000300F5D9F1E700BF40F20800C2F200006B
:100F3000006844F6D351C1F26201A0FB0101480AE6
:100F4000019000BF00BF0198411E002801913FF4AD
:100F500013AF00BF0198411E002801913FF40CAF70
:100F600000BF0198411E002801913FF405AF00BF6A
:100F70000198411E00280191E4D1FDE600210160A5
:100F8000FFF7B0FC054600BF306880077FF5F1AE83
:100F9000FFF7A8FC401B02284FF00300F4D9B4E788
:100FA0007068216A00F480328A4209D1616A00F4D3
:100FB0007010884204D1002002B0BDE8F08100BF6B
:100FC000012002B0BDE8F08140F004003062306AD8
:100FD00040F001001EE000BF20F001003062306AE6
:100FE00020F004003062FFF77DFC054641F28837AF
:100FF000306A800720D5FFF775FC401BB8424FF0E0
:101000000300F5D981E700BF20F001003062306AAB
:1010100020F004003062FFF765FC054641F2883796
:10102000306A800708D4FFF75DFC401BB842F7D94F
:10103000032002B0BDE8F081B8F1000F3FF59FAE8C
:10104000F06920F08050F06199E600BF40F4802004
:101050003060306840F480301CE000BF20F4803005
:101060003060306820F480203060FFF73BFC05469C
:10107000306880037FF55EAEFFF734FC401B6428C8
:101080004FF00300F4D940E720F48030306030683E
:1010900020F480203060FFF725FC0546306880038F
:1010A0003FF548AEFFF71EFC401B6428F6D903202D
:1010B00002B0BDE8F08100BF206AB0F5803F05D1E5
:1010C0007168A26821F40031114371607168626A2D
:1010D00021F4741111430843706001203866FFF752
:1010E00001FC0446306880013FF565AFFFF7FAFB6D
:1010F000001B02284FF00300F4D906E770470000F8
:1011000070B528B1416A29B100210161142106E0BE
:10111000012070BD4168B1F5827F02D01C21002200
:1011200042500026866290F8511029B980F850602C
:10113000054600F039F82846022180F8511090E861
:101140002E0002F482720C6803F4044324F040047D
:101150000C601A4405F4006305691A4405F00203A3
:1011600045691A4405F001038569C4691A4405F408
:1011700000731A4404F03803046A1A4404F080032C
:10118000846A1A4304F400531A430A60042202EAF0
:1011900015424A60CA6922F40062CA6101214665AB
:1011A00080F85110304670BD70B586B0044640F6E8
:1011B0000040C4F20100216800F51052002691425F
:1011C0000596CDE90366029602D006B070BD00BF59
:1011D00041F21801C4F202010A6842F480520A6026
:1011E0000A6802F480520192019A0A6842F00802E9
:1011F0000A60096801F00801019101992821029112
:10120000022103910321059102A9FFF75DFA042051
:10121000C4F20100016840F2845541F0E06141F000
:10122000010101603020C2F20005C4F20200102169
:1012300080224FF4405385E843002846C5E9032641
:10124000C5E90566EB61FFF799F9002818BFFFF7BC
:10125000BFF8A5646C6206B070BD00002DE9F041D6
:1012600082B01D4616460F460446FFF73BFB94F836
:10127000511001290ED18046002F4FF0010018BFF8
:10128000002E03D102B0BDE8F08100BF94F85000F9
:10129000012803D1022002B0BDE8F081012084F8CA
:1012A00050000320002184F8510061652763A68661
:1012B000E686A163A187E187A0682164B0F5004FAD
:1012C0002068616407D1016821F040010160016874
:1012D00041F4804101600168490603D4016841F08E
:1012E000400101606168731EE268B1FA81F1B3FAEE
:1012F00083F349095B09B2F5006F41EA030139D173
:1013000031B137F8021BC1602763E08E0138E086F7
:10131000E08E002870D0681C0BD11AE0216B31F8E8
:10132000022BC2602163E08E0138E086E08E002847
:1013300062D0206881688907F0D4FFF7D3FAA0EB68
:101340000800A842F2D338E0FFF7CCFAE08E00287C
:1013500052D0206881688907F6D5216B31F8022BBD
:10136000C2602163E08E0138E086E08E0028F0D173
:1013700042E000BF39B139780173206B013020633E
:10138000E08E0138E086E08EB0B3681C0BD123E01C
:10139000216B09780173206B01302063E08E0138E6
:1013A000E086E08E40B3206881688907F0D4FFF7BB
:1013B00099FAA0EB0800A842F3D3012084F8510069
:1013C000002084F85000032002B0BDE8F08100BF87
:1013D000FFF788FAE08E78B1206881688907F7D531
:1013E000216B09780173206B01302063E08E013896
:1013F000E086E08E0028EFD12046022101222B4614
:10140000CDF8008001F04CFE40B92046802100223A
:101410002B46CDF8008001F043FE28B1606D40F00E
:101420002000606520206065A06838B90020019028
:101430002068C1680191806801900198012084F8BA
:101440005100002084F85000606D002818BF012072
:1014500002B0BDE8F081000090F85130012B0BD1B3
:1014600000294FF0010318BF002A01D11846704728
:1014700090F85030012B03D102231846704700BF6B
:10148000B0B5012380F85030032380F85130002399
:10149000436501638286C2868363C0E91033838714
:1014A000C38784680268B4F5004F07D1146824F03C
:1014B00040041460146844F480441460D0F848C0B8
:1014C00043F2050E43F20D0442F6E575C0F6000E38
:1014D000C0F60004C0F60005CCE90A4ECCE90C5376
:1014E000C38E04460C326046FFF78AF860B1606D27
:1014F000012340F010006065002084F85000BDE832
:10150000B0401846704700BF20680168490603D400
:10151000016841F040010160002384F850304168C7
:1015200041F020014160416841F002014160BDE8A5
:10153000B04018467047000040F60000C4F20100B9
:101540004FF400410122FFF7C7B9000070470000C7
:10155000704700007047000090F83C20012A04BF4B
:1015600002207047B0B501F108053CCDD1E900CEAD
:1015700023F47C5322F470521A432EF4F0431A439E
:101580002CF4E0431A4324F4C0431A432A43C969A4
:1015900022F48042036811435964002180F83C1012
:1015A0000020B0BD90F83C20012A4FF0020236D056
:1015B00010B580F83D200268D2F804E0D2F808C0E7
:1015C0000C682EF07003234340F2FF74C4F2000451
:1015D000A24253600ADCB2F1804F13D040F20043C4
:1015E000C4F200039A420DD011E000BF42F600435E
:1015F000C4F201039A4205D040F60003C4F200038E
:101600009A4204D149682CF080031943916001216A
:10161000002280F83D1080F83C20BDE810401046C4
:1016200070470000002804BF0120704710B590F8F3
:101630003D1031B9002180F83C10044600F070F8EC
:101640002046022180F83D10016840F2FF740B68CB
:10165000C4F2000442F6004CA142C4F2010C15DCB5
:10166000B1F1804F1AD040F20042C4F20002914220
:1016700014D0A14218DCB1F1804F1DD040F20042DD
:10168000C4F20002914217D01AE000BF614505D0B4
:1016900040F60002C4F200029142EAD1826823F0CF
:1016A00070031343A142E6DD614505D040F6000218
:1016B000C4F20002914203D1026923F44073134340
:1016C000846923F08002D0F804E0C36822436145B6
:1016D0000A60CB62C1F828E002D14269CCF8302020
:1016E00001224A610B69DB0703D00B6923F0010378
:1016F0000B6180F8462080F83E2080F83F2080F87B
:10170000402080F8412080F8422080F8432080F873
:10171000442080F8452080F83D20002010BD0000C6
:10172000006842F60041C4F20101884218BF7047C8
:1017300081B041F21800C4F20200016841F4006176
:101740000160006800F400600090009801B07047EC
:1017500090F83D1001291CBF01207047022180F83C
:101760003D10006840F2FF72C168C4F2000290426E
:1017700041F00101C16009DCB0F1804F12D040F2AC
:101780000041C4F2000188420CD012E042F6004150
:10179000C4F20101884205D040F60001C4F2000104
:1017A000884206D1816801F00701062904BF0020A4
:1017B0007047016841F0010101600020704700009E
:1017C00090F83C20012A4FF002026CD080B580F8DE
:1017D0003D20D0F800C04FF67772DCF8083023EADD
:1017E0000202CCF808200B684F2B29DC1F2B45DDAB
:1017F000202B46D0302B44D0402B40F0AF80D1F886
:1018000004E0C968DCF82030DCF8202022F0010276
:10181000CCF82020DCF8182022F0F00242EA011176
:1018200023F00A0242EA0E02CCF81810CCF820206D
:10183000DCF8081041F0470121F0300128E000BF3A
:101840006F2B33DDB3F5005F74D0B3F5805F21D02B
:10185000702B40F08380D1E901E3C968DCF80820EF
:1018600043EA0E0322F47F4243EA01211143CCF8FC
:101870000810DCF8081041F0770109E00BB1102BDB
:101880006CD1DCF8081021F07001194341F0070118
:10189000CCF808100022012180F83D10002180F8CA
:1018A0003C10BDE880401046704700BF502B21D04F
:1018B000602B53D1D1F804E0C968DCF82030DCF8A3
:1018C000202022F01002CCF82020DCF8182022F48E
:1018D000704242EA013123F0A00242EA0E12CCF833
:1018E0001810CCF82020DCF8081041F0670121F036
:1018F0001001CDE7D1F804E0C968DCF82030DCF84D
:10190000202022F00102CCF82020DCF8182022F060
:10191000F00242EA011123F00A0242EA0E02CCF878
:101920001810CCF82020DCF8081041F0570121F005
:101930002001ADE7D1E901E3C968DCF8082043EAFA
:101940000E0322F47F4243EA01211143CCF8081030
:10195000DCF8081041F480419AE700BF01229AE7C1
:10196000002804BF012070472DE9F04F81B090F8A6
:101970003D2042B9002280F83C2004460D4600F08C
:101980009DF829462046022280F83D20026844F254
:101990000705936842F6004CAB43936040F2FF7337
:1019A0001468C4F200039A42C4F2010C14DCB2F1D0
:1019B000804F19D040F20045C4F20005AA4213D06E
:1019C0009A4217DCB2F1804F1CD040F20043C4F2BF
:1019D00000039A4216D01AE0624505D040F6000591
:1019E000C4F20005AA42EBD1856824F070042C43B0
:1019F0009A42E7DD624505D040F60003C4F20003D9
:101A00009A4204D1036924F4407543EA050424F0A2
:101A100080038469D0F804E0C568234362451360FD
:101A2000D562C2F828E002D14369CCF830304FF0DB
:101A3000010EC2F814E01569ED0703D0156925F011
:101A40000105156195689469D2F820C0D1E9003884
:101A5000D1E9027B43EA050A8D694FF6FF7924EA52
:101A6000090447EA05254FF6FC47BD43D1E907764F
:101A700044EA0B040B692C4344EA07242CF02207A8
:101A8000496944EA031347EA080743EA063347EA89
:101A90000111C2F808A09361116280F846E080F855
:101AA0003EE080F83FE080F842E080F843E080F8D4
:101AB0003DE0002001B0BDE8F08F000080B586B0A9
:101AC00040F200410068C4F2000100228842CDE9E2
:101AD00004220392029201D006B080BD41F21800A8
:101AE000C4F20200436843F002034360436803F01A
:101AF00002030193019B036843F004030360006841
:101B000000F0040001900198C020CDE9020201F527
:101B1000823002A90492FEF7D7FD06B080BD000016
:101B20007047000070B504460068C5680669B107D3
:101B300016D515F0020113D06FF0020101610121E9
:101B400021778069800703D02046FFF7E9FF05E091
:101B5000204600F08FF8204600F010FA0020207791
:101B6000700719D515F0040016D020686FF0040135
:101B7000016102212177806910F4407F04D0204662
:101B8000FFF7CEFF06E000BF204600F073F82046C6
:101B900000F0F4F900202077300717D515F0080081
:101BA00014D020686FF00801016104212177C06919
:101BB000800703D02046FFF7B3FF05E0204600F082
:101BC00059F8204600F0DAF900202077F00619D500
:101BD00015F0100016D020686FF010010161082187
:101BE0002177C06910F4407F04D02046FFF798FFAA
:101BF00006E000BF204600F03DF8204600F0BEF9A8
:101C000000202077F00718BF15F0010002D1300640
:101C100009D412E020686FF001010161204600F054
:101C2000AFF9300609D515F0800006D020686FF0B6
:101C3000800101612046FFF78BFC700609D515F085
:101C4000400006D020686FF040010161204600F09E
:101C5000A1F9B00658BF70BD15F0200008D021686A
:101C60006FF0200220460A61BDE87040FFF772BCA9
:101C700070BD00007047000090F83C30012B04BF9D
:101C8000022070474FEAB202032A00F2F1802DE9E8
:101C9000F043DFE802F003A53B7500BF036842F69E
:101CA00000461D6A1A6AC4F2010622F001021A6295
:101CB0001A465C6852F818CFB3428E68D1F800E03B
:101CC00025F0020545EA06050CD1CE68D1E9057874
:101CD00024F4407425F00C0526F004063C433543FB
:101CE00044EA08042CF0730747EA0E075C609F6122
:101CF0004F6809695F631D629F6947F008079F612C
:101D00009F6927F004079F61A6E000BF036842F6C1
:101D100000461D6A1A6AC4F2010622F480721A6231
:101D20001A46D3F804C052F81CEFB3428E680C6810
:101D300025F4007545EA06250FD1CE68D1E905984E
:101D4000360240F2FF4725F44065BE4335432CF48C
:101D5000405748EA090647EA061C2EF07307274356
:101D6000C3F804C0DF614F680969DF631D62DF6982
:101D700047F00807DF61DF6927F00407DF616BE0E8
:101D8000036842F60047D3F820C01A6AC4F201077C
:101D900022F480521A621A465C6852F81C5FD1F82D
:101DA00000E08E68BB4204D14F6924F4804444EAC9
:101DB00087142CF4005747EA063725F4E64646EA2E
:101DC0000E265C60DE614E6809691E641F62DF6971
:101DD00047F40067DF61DF6927F48067DF613AE07D
:101DE000036842F600461D6A1A6AC4F2010622F030
:101DF00010021A621A46D3F804C052F8184FB342C0
:101E00008E68D1F800E025F0200545EA06150FD1CF
:101E1000CE68D1E905986FF0400725F0C00507EAC4
:101E2000061635432CF4406748EA090647EA860C53
:101E300024F4E64444EA0E27C3F804C09F614F68C7
:101E400009699F631D629F6947F400679F619F69ED
:101E500027F480679F61090213681943116000210C
:101E6000BDE8F043002280F83C200846704700BFE0
:101E70000121002280F83C2008467047002804BF5A
:101E80000120704710B590F83D1031B9002180F85D
:101E90003C10044600F070F82046022180F83D1006
:101EA000016840F2FF740B68C4F2000442F6004C73
:101EB000A142C4F2010C15DCB1F1804F1AD040F2FE
:101EC0000042C4F20002914214D0A14218DCB1F1E8
:101ED000804F1DD040F20042C4F20002914217D060
:101EE0001AE000BF614505D040F60002C4F20002CE
:101EF0009142EAD1826823F070031343A142E6DDE8
:101F0000614505D040F60002C4F20002914203D1BF
:101F1000026923F440731343846923F08002D0F8EC
:101F200004E0C368224361450A60CB62C1F828E03F
:101F300002D14269CCF8302001224A610B69DB07EB
:101F400003D00B6923F001030B6180F8462080F871
:101F50003E2080F83F2080F8402080F8412080F823
:101F6000422080F8432080F8442080F8452080F803
:101F70003D20002010BD00007047000070470000A9
:101F8000006840F60001C4F20001884218BF7047A3
:101F9000FEF7AEBC70470000FEE7000080B582B0DF
:101FA00041F21400C4F202000168002241F0010174
:101FB00001600068052100F00100019001980D20EA
:101FC000FEF74CFD0D2002B0BDE88040FEF734BDA9
:101FD00010B543F2E51045F63C12C0F60000C0F61D
:101FE0000002002101F0D2F940F27004C2F20004B4
:101FF000206043F6996045F60812C0F60000C0F66E
:102000000002002101F0C2F9606010BD2DE9F04727
:1020100086B0002741F21800CDE90477CDE90277B8
:10202000C4F20200016840F6004541F02001016061
:102030000168C4F2010501F02001019101990168D4
:10204000002241F004010160016801F004010191E6
:102050000199016841F00801016000684FF2C04138
:1020600000F00800019001982846FEF735FCA5F520
:10207000806948464FF4004100224FF40048FEF7C3
:102080002BFC02AE012428463146CDE902470497D5
:10209000FEF71AFB4FF4906002A991C14FF0030ABA
:1020A00028463146CDF814A0FEF70EFB4FF2400053
:1020B00002A991C10220059028463146FEF704FB93
:1020C00048463146CDE90284CDE9047AFEF7FCFAB0
:1020D00006B0BDE8F087000080B540F2C85043F27A
:1020E0000001C2F20000C4F201014FF48272002329
:1020F00080E80E0000F114014FF4007C4FF0200E38
:1021000081E808500A21C0E90333C0E90833C0E977
:102110000A31FEF7F5FF002808BF80BDBDE880400A
:10212000FEF756B970B59CB042F6004540F220600B
:10213000C4F201050021C2F200004FF6FF721691B1
:10214000CDE914111191CDE90F11CDE90D11CDE9B2
:102150000B11CDE90911CDE90711CDE90511CDE943
:102160000311CDE90111C0E90051C0E90212C0E933
:1021700004118161FFF756FA002818BFFEF728F90D
:102180004FF48050139040F22060C2F2000013A977
:10219000FFF716FB002818BFFEF71AF940F220607F
:1021A000C2F20000FFF76AFE002818BFFEF710F920
:1021B00040F220600024C2F2000010A9CDE91044D2
:1021C000FFF7F0F9002818BFFEF702F96020CDE90B
:1021D000090440F22060C2F2000009A90022CDE902
:1021E0000B44CDE90D440F94FFF746FD002818BFBE
:1021F000FEF7EEF840F220644FF40050C2F2000403
:102200000026069001A920460596CDE90366CDE992
:1022100001660896FFF7A0F9002818BFFEF7D8F866
:102220002068CDE91A66A8421996189602D01CB00B
:1022300070BD00BF41F21800C4F20200016841F015
:1022400004010160006818A900F0040017901798B5
:102250004FF4807018900220199003201B90A5F570
:102260001050FEF731FA1CB070BD000080B58CB084
:1022700040F2686040F200420021C2F20000C4F265
:1022800000024FF6FF73C0E900210122CDE90011E1
:10229000C0E9021301618161CDE90321CDE9052186
:1022A000CDE90711CDE909210B9103A9FFF758FBEF
:1022B000002818BFFEF78CF840F26860C2F20000F8
:1022C0006946FFF76FF9002818BFFEF781F80CB0D8
:1022D00080BD0000FEE70000FEE7000080B540F290
:1022E0007C10C2F200004FF48061FDF7D0FF80BD8A
:1022F0002DE9F04F81B040F600046420C4F20104DF
:10230000FEF7CEF904F5806528468021012280275A
:10231000FEF7E2FA6420FEF7C3F9AE208DF8030061
:102320002846402100224FF040094FF00008FEF7F8
:10233000D3FA20464FF400410022FEF7CDFA40F2D6
:10234000C856C2F200060DF1030B30465946012271
:102350004FF47A73FEF782FF20464FF400410122CA
:10236000FEF7BAFAD5208DF8030028464021002256
:10237000FEF7B2FA20464FF400410022FEF7ACFA15
:102380000DF10301304601224FF47A73FEF766FF28
:1023900020464FF400410122FEF79EFA28464021D4
:1023A00000228DF80370FEF797FA20464FF40041A3
:1023B0000022FEF791FA0DF10301304601224FF49D
:1023C0007A73FEF74BFF20464FF400410122FEF7DF
:1023D00083FAA8208DF80300284640210022FEF74A
:1023E0007BFA20464FF400410022FEF775FA0DF10A
:1023F0000301304601224FF47A73FEF72FFF204687
:102400004FF400410122FEF767FA3F208DF80300E8
:10241000284640210022FEF75FFA20464FF4004193
:102420000022FEF759FA0DF10301304601224FF464
:102430007A73FEF713FF20464FF400410122FEF7A6
:102440004BFAD3208DF80300284640210022FEF7E6
:1024500043FA20464FF400410022FEF73DFA0DF109
:102460000301304601224FF47A73FEF7F7FE20464F
:102470004FF400410122FEF72FFA284640210022A6
:102480008DF80380FEF728FA20464FF40041002221
:10249000FEF722FA0DF10301304601224FF47A7360
:1024A000FEF7DCFE20464FF400410122FEF714FA4D
:1024B0002846402100228DF80390FEF70DFA2046B1
:1024C0004FF400410022FEF707FA0DF103013046F8
:1024D00001224FF47A73FEF7C1FE20464FF400410B
:1024E0000122FEF7F9F9A1208DF8030028464021CA
:1024F0000022FEF7F1F920464FF400410022FEF7DA
:10250000EBF90DF10301304601224FF47A73FEF727
:10251000A5FE20464FF400410122FEF7DDF9C82058
:102520008DF80300284640210022FEF7D5F9204609
:102530004FF400410022FEF7CFF90DF103013046C0
:1025400001224FF47A73FEF789FE20464FF40041D2
:102550000122FEF7C1F9DA208DF803002846402158
:102560000022FEF7B9F920464FF400410022FEF7A1
:10257000B3F90DF10301304601224FF47A73FEF7EF
:102580006DFE20464FF400410122FEF7A5F912200E
:102590008DF80300284640210022FEF79DF92046D1
:1025A0004FF400410022FEF797F90DF10301304688
:1025B00001224FF47A73FEF751FE20464FF400419A
:1025C0000122FEF789F981208DF803002846402179
:1025D0000022FEF781F920464FF400410022FEF769
:1025E0007BF90DF10301304601224FF47A73FEF7B7
:1025F00035FE20464FF400410122FEF76DF9CF2051
:102600008DF80300284640210022FEF765F9204698
:102610004FF400410022FEF75FF90DF1030130464F
:1026200001224FF47A73FEF719FE20464FF4004161
:102630000122FEF751F9D9208DF8030028464021E8
:102640000022FEF749F920464FF400410022FEF730
:1026500043F90DF10301304601224FF47A73FEF77E
:10266000FDFD20464FF400410122FEF735F9F1202F
:102670008DF80300284640210022FEF72DF9204660
:102680004FF400410022FEF727F90DF10301304617
:1026900001224FF47A73FEF7E1FD20464FF400412A
:1026A0000122FEF719F9DB208DF8030028464021AE
:1026B0000022FEF711F920464FF400410022FEF7F8
:1026C0000BF90DF10301304601224FF47A73FEF746
:1026D000C5FD20464FF400410122FEF7FDF83020F1
:1026E0008DF80300284640210022FEF7F5F8204629
:1026F0004FF400410022FEF7EFF80DF103013046E0
:1027000001224FF47A73FEF7A9FD20464FF40041F1
:102710000122FEF7E1F8A4208DF8030028464021AD
:102720000022FEF7D9F820464FF400410022FEF7C0
:10273000D3F80DF10301304601224FF47A73FEF70E
:102740008DFD20464FF400410122FEF7C5F8A6207A
:102750008DF80300284640210022FEF7BDF82046F0
:102760004FF400410022FEF7B7F80DF103013046A7
:1027700001224FF47A73FEF771FD20464FF40041B9
:102780000122FEF7A9F88D208DF80300284640218C
:102790000022FEF7A1F820464FF400410022FEF788
:1027A0009BF80DF10301304601224FF47A73FEF7D6
:1027B00055FD20464FF400410122FEF78DF814200C
:1027C0008DF80300284640210022FEF785F82046B8
:1027D0004FF400410022FEF77FF80DF1030130466F
:1027E00001224FF47A73FEF739FD20464FF4004181
:1027F0000122FEF771F8AF208DF803002846402132
:102800000022FEF769F820464FF400410022FEF74F
:1028100063F80DF10301304601224FF47A73FEF79D
:102820001DFD20464FF400410122FEF755F86420BB
:10283000FDF736FF4FF0100A002700BF47F0B00049
:102840008DF803002846402100224FF00009FEF7D2
:1028500043F820464FF400410022FEF73DF8304691
:10286000594601224FF47A73FEF7F8FC20464FF4E4
:1028700000410122FEF730F802208DF803002846BF
:1028800040210022FEF728F820464FF400410022A4
:10289000FEF722F83046594601224FF47A73FEF7CC
:1028A000DDFC20464FF400410122FEF715F82846D2
:1028B000402100228DF803A0FEF70EF820464FF4C9
:1028C00000410022FEF708F83046594601224FF435
:1028D0007A73FEF7C3FC20464FF400410122FDF756
:1028E000FBFF00BF2846402101228DF80380FDF741
:1028F000F3FF20464FF400410022FDF7EDFF304684
:10290000594601224FF47A73FEF7A8FC20464FF493
:1029100000410122FDF7E0FF09F101004FFA80F9C3
:10292000B9F1FF3FDEDC072F07F1010786D301B0C5
:10293000BDE8F08F2DE9F04F8AB046B20027002E97
:102940004FF0000648BF01263F2988BF01273743C3
:102950000DF1100C09908CE88600079372D1002AC3
:1029600070D0002B6ED002EB000EBEF1800F28BF9E
:102970004FF0800EAEEB00025D1802F0030400F190
:10298000010A00F10209C21CA0EB0E06402D28BF6F
:102990004025089203E000BF01318D4252D901F079
:1029A0000703012000FA03F30998CA086FEA030C31
:1029B0000746ECB140F27C13C2F2000303EBC213F2
:1029C0001F5C012C07EA0C071F54574610D013F860
:1029D0000A70022C07EA0C0703F80A704F4607D06A
:1029E00013F8097007EA0C0703F80970089F00BF85
:1029F00016F1040FD0D8D30140F27C103B44C2F250
:102A000000000344AEEB0702A3F1030818F8043FEB
:102A1000043A98F8010018F8017C98F802B000EA2E
:102A20000C0007EA0C0703EA0C0388F801000BEA24
:102A30000C0008F8017C88F8003088F80200E5D125
:102A4000AAE700BF079B059D002B18BF002D03D1EF
:102A50000AB0BDE8F08F00BF13980028F8D00698A0
:102A60000028F5D1099AA818802828BF8020049949
:102A70001944402928BF40219042E9D0049BCAB2A2
:102A80009A42E5D0099A049F801AC3B2C81BC0B20B
:102A90000138C0080790F808089007F00706012BD6
:102AA0004FF001004FF00101039388BF1846002E3C
:102AB00000F00303069300F0378100F0FC0340F2BE
:102AC0007C10C2F20000104401901398C6F108096E
:102AD00001EBD701C3F1000B01304FF0000E4FF0B6
:102AE000000A009102900AE001781143017000BFD2
:102AF0000AF1010A07985FFA8AFE7045A8D3089880
:102B00000EEB0007072FF3D802995FFA8AF005FB56
:102B100000181399072F0EFB051104915ED103983D
:102B20000024042824D3019F08EB040010F8012C92
:102B30003D1995F88013B240114385F8801318F8B9
:102B4000041095F88123B140114385F88113417831
:102B500095F88223B140114385F88213807895F867
:102B60008313B04004340843A34285F88303DBD1C8
:102B70000698DDE904750028BAD0099940F27C1264
:102B80002144C2F20002385D114491F88023B04024
:102B90001043069A81F88003012AA9D0099A601C83
:102BA000395C104440F27C12C2F20002104490F8EA
:102BB0008023B1401143069A80F88013022A97D0EF
:102BC000A01C395C01FA06F20999084440F27C1114
:102BD000C2F20001084400F5607085E703990429FA
:102BE00006D200240698049A002855D180E700BF39
:102BF00008995D46084401996FF0030401EBC01B7E
:102C000008EB0402D0780BEB040C9CF80410B040E5
:102C100008438CF80400D0789CF8841020FA09F05E
:102C200008438CF8840010799CF80510B0400843E4
:102C30008CF8050010799CF8851020FA09F00843FB
:102C40008CF8850050799CF80610B04008438CF849
:102C5000060050799CF8861020FA09F008438CF899
:102C6000860090799CF80710B04008438CF8070064
:102C700090799CF8871020FA09F004340843291948
:102C800004318CF88700BBD1AB46059D043406980F
:102C9000049A00283FF42CAF0098115D00EB0E0C55
:102CA000099840F27C1EC2F2000E25180EEBC717E1
:102CB000785DB14008437855105D0EEBCC1C1CF8D4
:102CC000051020FA09F0084306990CF80500059D47
:102CD00001293FF40DAF0999601C12F800E0451876
:102CE00017F805800EFA06F141EA0801049A7955B1
:102CF000105C1CF8051020FA09F0084306990CF83E
:102D00000500059D02293FF4F3AE099DA01C115C4E
:102D100005447C5DB14021437955105C20FA09F2ED
:102D20000CEB0500059DDFE600F0FC00C0F1000E95
:102D300040F27C10C2F2000010440130049013985D
:102D40004FF0000A00F101084FF0000B08E000BF4F
:102D50000BF1010B07985FFA8BFA5045FFF478AE40
:102D600008980AEB0009B9F1070FF1D80398042875
:102D700004D20022069858BBEAE700BF08995FFA20
:102D80008BF00A18049905FB008601EBC2126FF064
:102D9000030700BFF019D419C378E57894F804C08C
:102DA0002B43E3700379657943EA0C03237143797C
:102DB000A1792B4363718079043708430EEB070137
:102DC0000431A071E6D1059D3A1D06980028BFD0B8
:102DD00009991398561840F27C110AFB0504C2F2B7
:102DE000000101EBC913A05C9F5D069938430129DE
:102DF0009855ADD00999501C265C08441F5C069973
:102E00003E4302291E54A3D00999901C225C084419
:102E10001C5C22431A549BE73F2988BF70472DE969
:102E2000F04782B092467AB3814680282CD89AF82F
:102E3000000048B345F216380D460027C0F60008DA
:102E40004E4606E010354E460137F8B21AF800003B
:102E5000D0B1C1B20A29F5D0F1B2792904D3E9B2CF
:102E6000F02911D310354E4641B220290ADB203813
:102E7000C0B208EB0014F0B2E9B2082210230094AB
:102E8000FFF758FD0836DFE702B0BDE8F0477047AE
:102E9000F0B581B040F28057C2F20007387840F6B2
:102EA0000004C4F20104503804F580658DF8010077
:102EB000284640210022FDF70FFD20464FF4004137
:102EC0000022FDF709FD40F2C856C2F200060DF1DE
:102ED0000101304601224FF47A73FEF7BFF9204614
:102EE0004FF400410122FDF7F7FC02208DF80200AB
:102EF000284640210022FDF7EFFC20464FF4004118
:102F00000022FDF7E9FC0DF10201304601224FF4E9
:102F10007A73FEF7A3F920464FF400410122FDF732
:102F2000DBFC10208DF80300284640210022FDF72D
:102F3000D3FC20464FF400410022FDF7CDFC0DF1FB
:102F40000301304601224FF47A73FEF787F92046D9
:102F50004FF400410122FDF7BFFC28464021012229
:102F6000FDF7BAFC20464FF400410022FDF7B4FC07
:102F7000387840F27C11C2F2000101EBC0113046FA
:102F80008022FEF769FA3878013000F007003870C7
:102F900001B0F0BD000000000000000000000000D3
:102FA000EFF30980BFF36F8F0D4B1A6820E9F00F24
:102FB00010602DE908404FF0500080F3118801F0B7
:102FC000E9FA4FF0000080F31188BDE80840196865
:102FD0000868B0E8F00F80F30988BFF36F8F70477F
:102FE00078000020406A01684A6822F003024A60C3
:102FF000416D41F010014165012180F85110FEF74B
:103000007DB80000406AFEF7A1BA0000B0B582B0FA
:10301000446A0546FDF766FC29680968890639D4C3
:103020000546206801224168642321F020014160A7
:10303000416821F00201416020460221009500F024
:103040002FF838B92046802100226423009500F033
:1030500027F838B1606D40F020006065606D40F089
:1030600020006065A06838B9002001902068C16820
:1030700001918068019001980020E086012084F889
:103080005100606D30B1204602B0BDE8B040FEF79F
:1030900035B800BF204602B0BDE8B040FEF74CBADC
:1030A0002DE9F04381B0089C984615460E468146AE
:1030B000FDF718FC201A00EB0804FDF713FC40F2A2
:1030C0000801C2F200010968C1F3CB3161430091EC
:1030D000D9F800108A683240921BB2FA82F2520983
:1030E000AA423DD0074618F1010031D0FDF7FAFBA6
:1030F000C01BA04238D2009800990028A1F101011C
:103100000091D9F80010896808BF044601EA06005A
:10311000801BB0FA80F04009A842E7D120E000BF50
:1031200088683040801BB0FA80F04009A84217D070
:1031300088683040801BB0FA80F04009A8420FD068
:1031400088683040801BB0FA80F04009A84207D060
:1031500088683040801BB0FA80F04009A842DFD177
:10316000002001B0BDE8F083D9E900014268B1F563
:10317000827F22F0E00242600BD1D9F80810B1F54D
:10318000004F02D0B1F5806F03D1016821F04001FA
:103190000160D9F82810B1F5005F07D1016821F46A
:1031A00000510160016841F400510160012089F87B
:1031B0005100002089F85000032001B0BDE8F083E1
:1031C000074B19680868B0E8F00F80F30988BFF36F
:1031D0006F8F4FF0000080F311884EF00D0E704796
:1031E0007800002005A400BF40F6B83000F06AF86F
:1031F000082000212246FFF70FFEF5E748656C6CBA
:103200006F00000080B54EF21000CEF200000068A2
:1032100001F07EFE012808BF80BDBDE8804001F0BE
:10322000B7BA00007047000040F2B060C2F2000080
:10323000FEF778BCFEE7000090B0FDF767FB0024C6
:103240000120CDE90B44CDE9094406900A904FF4E2
:10325000E0104FF4803102250F9006A8CDE9071445
:10326000CDE90D51FDF74AFD20B1EFF3108072B6A4
:10327000FEE700BF0F20CDE901054FF48060CDE9E6
:10328000040401A802210394FDF724FC20B1EFF30C
:10329000108072B6FEE700BFFEF7B8FEFEF77EFEB6
:1032A000FEF71AFFFEF73EFFFEF7E0FFFFF720F8FC
:1032B000FFF714F800F038F8FEF78AFE00F048F83F
:1032C000FEE70000EFF3058100291CBF6FF0050049
:1032D0007047002804BF0020704780B500F0AAFFA7
:1032E000002080BDEFF3058100291CBF6FF00500B1
:1032F000704710B582B0044601F01AFE01460190F5
:1033000084426FF0030005D0611A03D401A800F0D5
:10331000D1FF002002B010BDEFF30580002808BFE8
:1033200001F006BE01F00ABEEFF3058000281CBFC5
:103330006FF00500704740F27C50C2F20000016857
:10334000002911BF4FF0FF300121016000207047BC
:10335000EFF3058000281CBF6FF00500704740F2B6
:103360007C50C2F20000016801291CBF4FF0FF3001
:10337000704780B54EF61F51CEF2000100220A7050
:103380000221016001F086F8002080BDF0B585B013
:103390008C4600230493EFF30581B0B3A9BB2AB395
:1033A0009469002C08BF1824382C2ED81179C9072D
:1033B0002BD15669D2E902574FEA960E1168002EBA
:1033C000734608BF80231DB35C2F25D312690023E9
:1033D000002A18BF002E18D0CDE90042724663467D
:1033E000029501F059FD05B0F0BD00BF80231824FF
:1033F000002104AF9AB26346CDE9004701F01CFDFD
:1034000000230499012808BF0B46184605B0F0BDFB
:1034100017B91269002AECD00023184605B0F0BD98
:103420002DE9F041044600F0BFFD40F27806C2F2FB
:103430000006F06840F2E8750130F0603068C2F2D2
:10344000000558B13069002840F007813068E16A12
:10345000C06A884298BF3460FFE000BF3460F06803
:10346000012840F0FA80284600F04EFD05F11400D6
:1034700000F04AFD05F1280000F046FD05F13C0092
:1034800000F042FD05F1500000F03EFD05F1640042
:1034900000F03AFD05F1780000F036FD05F18C00F2
:1034A00000F032FD05F1A00000F02EFD05F1B400A2
:1034B00000F02AFD05F1C80000F026FD05F1DC0052
:1034C00000F022FD05F1F00000F01EFD05F5827010
:1034D00000F01AFD05F58C7000F016FD05F59670EC
:1034E00000F012FD05F5A07000F00EFD05F5AA70C4
:1034F00000F00AFD05F5B47000F006FD05F5BE709C
:1035000000F002FD05F5C87000F0FEFC05F5D27074
:1035100000F0FAFC05F5DC7000F0F6FC05F5E6704D
:1035200000F0F2FC05F5F07000F0EEFC05F5FA7025
:1035300000F0EAFC05F5027000F0E6FC05F5077006
:1035400000F0E2FC05F50C7000F0DEFC05F51170F2
:1035500000F0DAFC05F5167000F0D6FC05F51B70DE
:1035600000F0D2FC05F5207000F0CEFC05F52570CA
:1035700000F0CAFC05F52A7000F0C6FC05F52F70B6
:1035800000F0C2FC05F5347000F0BEFC05F53970A2
:1035900000F0BAFC05F53E7000F0B6FC05F543708E
:1035A00000F0B2FC05F5487000F0AEFC05F54D707A
:1035B00000F0AAFC05F5527000F0A6FC05F5577066
:1035C00000F0A2FC05F55C7000F09EFC05F5617052
:1035D00000F09AFC05F5667000F096FC05F56B703E
:1035E00000F092FC05F5707000F08EFC05F575702A
:1035F00000F08AFC05F57A7000F086FC05F57F7016
:1036000000F082FC05F5826000F07EFC05F22440AB
:1036100000F07AFC05F5876000F076FC05F24C407E
:1036200000F072FC40F25418C2F20008404600F06C
:103630006BFC08F11407384600F066FC06F16400E4
:1036400000F062FC06F13C0000F05EFC06F1500068
:1036500000F05AFCC6F81C8037627068716A421C20
:10366000E06A72608842626488BF706200EB80002A
:1036700005EB8000211D00F089FC00F0B9FC3069E9
:1036800088B13068E16AC06A884228BFBDE8F0812D
:103690004EF60450CEF200004FF080510160BFF3AF
:1036A0004F8FBFF36F8FBDE8F081000040F27805C7
:1036B00040F2E8764EF60458C2F20005C2F2000667
:1036C000CEF200084FF0805703E000BF204600F024
:1036D000A7FCA868D0B100F067FCA86CC468201DE6
:1036E00000F0E4FBE8680138E860A8680138A860E9
:1036F00000F07EFC94F859000228EAD00128E5D0B9
:1037000070B9206B00F08CFCE0E700BF3068022845
:10371000DFD3C8F80070BFF34F8FBFF36F8FD8E7C8
:103720004FF0500080F31188BFF36F8FBFF34F8FBE
:10373000FEE700002DE9F0470A9C8246206B164602
:103740000F46DDE908599100A5229846FCF797FD40
:10375000206B002F00EB8600A0F1040020F007068C
:1037600044D0387884F83400D8B3787884F83500B9
:10377000B8B3B87884F8360098B3F87884F837008E
:1037800078B3387984F8380058B3787984F83900F8
:1037900038B3B87984F83A0018B3F87984F83B0064
:1037A000F8B1387A84F83C00D8B1787A84F83D00D2
:1037B000B8B1B87A84F83E0098B1F87A84F83F003E
:1037C00078B1387B84F8400058B1787B84F84100A8
:1037D00038B1B87B84F8420000281CBFF87B84F81D
:1037E0004300002084F8430003E000BF002084F879
:1037F00034000027201D372D28BF3725E562C4E996
:10380000135700F08DFB04F1180000F089FBC5F19F
:103810003800A061304651464246246164626765C3
:1038200084F8587000F028FBB9F1000F206018BF31
:10383000C9F80040BDE8F08706480068006880F3DA
:10384000088862B661B6BFF34F8FBFF36F8F00DF9A
:1038500000BF000008ED00E081B00020009040F2C1
:103860000C00C2F2000000684FF0500181F3118893
:10387000BFF36F8FBFF34F8F013007D0FEE700BF5C
:10388000009830B9009820B9009810B90098002825
:10389000F6D001B07047000088B040F2F00AC2F2E2
:1038A000000A0DF11009EB46DAF8080005681DB1B1
:1038B000C068046801E000BF002400F063FE01F06E
:1038C00037FBDAF810100646884220D3002DCAF8DC
:1038D000106051D0A6424FD301F03EFCDAF8080048
:1038E000C068C7683D1D284600F0E0FA97F8280038
:1038F000410745D400F0FA0087F8280082E000BFB5
:103900007860DAF8080029463F6100F00DFBDAF82C
:103910000800016831B3C068C76804683D1D2846C7
:1039200000F0C4FA396A3846884797F828004007FB
:10393000EDD5B8692044A042E2D8DAF800000028AA
:1039400000F04081002004A991C101F0E1FADAF809
:10395000000049460022002300F0A0FF0028D6D135
:1039600030E100BFDAF80C10CAF81060CAE90210A2
:1039700001F0F2FB4FE000BF65B1002210E000BF94
:10398000B8693F610119B14279601DD90AF1080097
:103990001FE000BFDAF80C000068B0FA80F04209BE
:1039A000DAF80000A11B00F01BFC01F0D5FB90BB76
:1039B0004EF60450CEF200004FF080510160BFF38C
:1039C0004F8FBFF36F8F26E0311B814206D20AF181
:1039D0000C000068294600F0A7FA13E0DAF80000AE
:1039E000002800F00D81002004A991C101F090FA97
:1039F000DAF8000049460022002300F04FFF0028BB
:103A000000F0FE80396A3846884704E00AF10C026B
:103A1000106800F089FADAF800005946002201F037
:103A20009DF800283FF440AF0098B0F1FF3F06DC5E
:103A3000DDE901200399904700980028EBD4029E0D
:103A4000706910B1301D00F031FA01F071FADAF846
:103A50001010074688420CD30098CAF81070092845
:103A60003DD9D8E76860DAF8080021462D6100F0FA
:103A70005BFADAF80800016841B3C068C568D0F89D
:103A800000802C1D204600F011FA296A284688473C
:103A900095F828004007ECD5A86940444045E1D896
:103AA000DAF80000002800F083800020CDE9040847
:103AB000069501F02DFADAF80000494600220023AD
:103AC00000F0ECFE0028D4D172E000BFDAF80C1050
:103AD000CAE902100098CAF8107009289BD8DFE8DC
:103AE00000F005050557415F0505574196F8280088
:103AF000B26940F00101019886F828101318314688
:103B000041F8043FBB42366108D987420AF10802F6
:103B1000BFF47EAF834205D27AE700BF381A9042E5
:103B2000FFF474AF316A3046884796F828004007A2
:103B30007FF571AFDAF8000000284DD00198B16927
:103B4000069608440021CDE9041001F0E1F9DAF805
:103B5000000049460022002300F0A0FE00287FF468
:103B60005AAF39E096F8280040F00101019886F834
:103B700028100028B06139D0384431460AF10C02CF
:103B800041F8040F3661B84288BF0AF108023FE7E6
:103B900096F8280000F0FE0086F828003BE700BFFA
:103BA00096F828008107F5D4304600F039FA32E75C
:103BB0004FF0500080F31188BFF36F8FBFF34F8F2A
:103BC000FEE700BF4FF0500080F31188BFF36F8F06
:103BD000BFF34F8FFEE700BF4FF0500080F3118816
:103BE000BFF36F8FBFF34F8FFEE700BF4FF0500062
:103BF00080F31188BFF36F8FBFF34F8FFEE700BFD5
:103C00004FF0500080F31188BFF36F8FBFF34F8FD9
:103C1000FEE70000F0B581B0044600F0C5F994F964
:103C20004560012E0FDB04F1240500BF286850B168
:103C3000284601F057FA002818BF00F0ABFBF0B29D
:103C4000013E0128F2D8FF2684F8456000F0D0F943
:103C500000F0AAF994F94470012F0EDB04F110056D
:103C6000286850B1284601F03DFA002818BF00F03E
:103C700091FBF8B2013F0128F2D884F8446001B00A
:103C8000BDE8F04000F0B4B970B5044600F07AFC2D
:103C900040F22C1CC2F2000CDCF8042052B19CF85B
:103CA0000000002818BF4FF000404FF0000544BB53
:103CB00081E000BF40F64840C2F20000420700F534
:103CC000406200F1070122F0070218BF21F007004F
:103CD0000021A2F10803CCE90601CCF8043042E946
:103CE0000211DCF80420191AC0E9002101208CF827
:103CF00000004FF00040CCE90211002C4FF000050D
:103D000059D0204057D124F0070000F1100360077C
:103D100008BF04F10803DCF80800591E81424AD2AA
:103D2000604650F818EFDEF804509D422BD2DEF8C2
:103D30000010B9B174464D689D4217D20E68AEB1FD
:103D400075689D4216D23068A0B145689D4215D273
:103D500004689CB165689D4214D22168A64600297A
:103D6000E9D110E00CF118000DE000BF8E462046AE
:103D700009E000BFB646084605E000BF864630466B
:103D800001E000BFA646964514D00268DEF8004068
:103D9000E91A112904604CD30EEB0305680719D00A
:103DA0004FF0500080F31188BFF36F8FBFF34F8F38
:103DB000FEE700BF002501F0CFF9680759D04FF0AA
:103DC000500080F31188BFF36F8FBFF34F8F00BF98
:103DD000FEE700BF0CF118006960CEF8043000BFA8
:103DE0000168A9420AD20868A8420BD20168A94218
:103DF00004D208680B46A842F2D304E00346084602
:103E000001E000BF0B465C6869681E19AE4202D132
:103E100021441D4659606C18844206D1DCF80440E8
:103E2000A04202D011C821446960AB42286018BF8B
:103E30001D60DEF80400DCE9021302F10805091A2E
:103E40009942CCF8081038BFCCF80C109CF8001040
:103E500000294FF0000118BF40F00040CEE90010EB
:103E6000DCF810000130CCF8100001F075F968079B
:103E7000A5D1284670BD0000034643F65900C0F6A0
:103E800000004FF0807C21F0010103E90310A3F151
:103E9000400043F8202C7047FFF73EFA0446FEF737
:103EA000F7FF601DFFF71EFAF6E700000169D0E991
:103EB0000132D1F804C09A608445536008BF4A605B
:103EC0000022026108680138086008687047000035
:103ED00041F64C23C2F20003036041F64C00C2F2EB
:103EE00000000860802010607047000041F6A86361
:103EF000C2F20003036041F6A820C2F2000008608D
:103F00004FF48070106070474FF0FF31024642F866
:103F1000081F00214260C0E90322016070470000D1
:103F2000002101617047000010B5D1F800C01CF1FC
:103F3000010213D000F1080462681368634511D8C8
:103F400053681C68644511D85A68146864450FD8D2
:103F500054682368A6466345EED90BE00269D2F89F
:103F600004E007E09646224604E000BF9E4601E0DA
:103F700096461A46C1F804E0CEF808108A605160EF
:103F8000086101680131016010BD0000D0F800C077
:103F9000436808619A68C1E90132516099600CF187
:103FA00001010160704700004FF0500080F311885C
:103FB000BFF36F8FBFF34F8F40F20C00C2F20000CF
:103FC00001684A1C026009B1704700BF4EF60450F8
:103FD000CEF200000068000608BF70474FF05000A6
:103FE00080F31188BFF36F8FBFF34F8FFEE70000A0
:103FF00040F20C00C2F20000016839B101390160E1
:1040000018BF7047002080F3118870474FF05000B0
:1040100080F31188BFF36F8FBFF34F8FFEE700006F
:1040200070B5002808BF70BD40F22C14C2F2000425
:10403000217850F8042C002918BF4FF0004111429C
:104040000ED0A0F108052B68A3B14FF0500080F30B
:104050001188BFF36F8FBFF34F8F00BFFEE700BF24
:104060004FF0500080F31188BFF36F8FBFF34F8F75
:10407000FEE700BF22EA010140F8041C064600F0FA
:1040800081FA56F8041CA0680844A06004F11800E6
:104090000368AB420AD21868A84225D20368AB4233
:1040A00004D218681A46A842F2D301E00246184624
:1040B0005368D618AE4202D11944154651606B18A8
:1040C000834205D16368984202D009C819446960E7
:1040D000AA42286018BF1560606901306061BDE8C0
:1040E000704001F039B800BF1A465368D618AE4286
:1040F000E5D1E1E74EF21000CEF2000000210160B0
:10410000816040F20801C2F20001096844F6D3520E
:10411000C1F26202A1FB02124FF0FF3101EB9211DA
:10412000416007210160704740F24C10EFF30581B8
:104130001029C2F2000011D34EF2F032CEF200028A
:10414000895C0278914209D24FF0500080F31188C7
:10415000BFF36F8FBFF34F8FFEE700BF4EF60C51DA
:10416000CEF200010968406801F4E061814298BF25
:1041700070474FF0500080F31188BFF36F8FBFF38B
:104180004F8F00BFFEE7000041F6047CC2F2000C36
:10419000DCF8003003B3634653F8082FEAB16346F6
:1041A00053F8102FCAB1634653F8182FAAB16346CB
:1041B00053F8202F8AB1634653F8282F6AB163461B
:1041C00053F8302F4AB15CF8382F002A634608BFF5
:1041D000C3E90010704700BF6346C3E90010704791
:1041E00070B515460E460446FFF7DEFE94F844000F
:1041F000FF2804BF002084F8440094F84500FF28FD
:1042000004BF002084F84500FFF7F2FEA06B28B140
:104210002046BDE87040FFF7FDBC00BF04F124005C
:1042200031462A4600F0F8F82046BDE87040FFF716
:10423000F1BC000070B588B340F27804C2F200040B
:10424000616949B14FF0500080F31188BFF36F8F5F
:10425000BFF34F8FFEE700BF616906460131616120
:10426000A569216804310846FFF720FE2068AD19D2
:10427000456005D3206A21680431FFF755FE08E048
:10428000E06921680431FFF74FFEE06A854238BFDC
:10429000E56200F061FF002818BF70BD4EF60450C3
:1042A000CEF200004FF080510160BFF34F8FBFF39B
:1042B0006F8F70BD70B588B1D1B140F27804C2F291
:1042C00000046269F2B14FF0500080F31188BFF32F
:1042D0006F8FBFF34F8F00BFFEE700BF4FF050005E
:1042E00080F31188BFF36F8FBFF34F8FFEE700BFDE
:1042F0004FF0500080F31188BFF36F8FBFF34F8FE3
:10430000FEE700BF626901326261A26903689A42F6
:10431000194403D2994203D316E000BF994201D356
:10432000914211D90160A56920688E1A0430FFF707
:10433000BDFD2068AD19456008D3206A21680431AD
:10434000FFF7F2FD0BE000BF016008E0E0692168C3
:104350000431FFF7E9FDE06A854238BFE56200F00D
:10436000FBFE002818BF70BD4EF60450CEF20000D0
:104370004FF080510160BFF34F8FBFF36F8F70BD5F
:1043800040F27801C2F200018A6B026089694160E3
:104390007047000040F27800C2F200000121016382
:1043A0007047000070B5D8B140F27804C2F2000442
:1043B0000D4621681831FFF7B7FDA6692068043063
:1043C000FFF774FD681C15D02068AD19456019D33E
:1043D000206A21680431BDE87040FFF7A5BD00BF29
:1043E0004FF0500080F31188BFF36F8FBFF34F8FF2
:1043F000FEE700BF54F8500B011D2046BDE8704099
:10440000FFF7C4BDE06921680431FFF78DFDE06A64
:10441000854238BFE56270BDF0B581B0C0B140F2F1
:104420007804C2F200040D46216816461831FFF7E1
:10443000ADFDA76920680430FFF738FD96B154F848
:10444000500B011D204601B0BDE8F040FFF79EBDB6
:104450004FF0500080F31188BFF36F8FBFF34F8F81
:10446000FEE700BF2068ED19456007D3206A216888
:10447000043101B0BDE8F040FFF756BDE0692168A6
:104480000431FFF751FDE06A854238BFE56201B0B3
:10449000F0BD000010B588B00020CDE9050006A8E9
:1044A00005A904AAFFF714FD059800283ED0069C34
:1044B000002C45D05C21049A079107995C2949D1C9
:1044C00007992063022084F8590007A80021CDE94C
:1044D000001043F2AD60C0F6000028A10023029452
:1044E000FFF728F92046FEF79BFF079840F2780473
:1044F000C2F20004A062B0B100F0A6FE411C33D0AD
:10450000012810D14FF0500080F31188BFF36F8F56
:10451000BFF34F8F4FF0FF30E06201202061002099
:10452000A06100F09DF808B010BD00BF4FF0500032
:1045300080F31188BFF36F8FBFF34F8FFEE700BF8B
:104540004FF0500080F31188BFF36F8FBFF34F8F90
:10455000FEE700BF4FF0500080F31188BFF36F8F6C
:10456000BFF34F8FFEE700BF4FF0500080F311887C
:10457000BFF36F8FBFF34F8FFEE700BF49444C4539
:104580000000000040F27800C2F2000041690131F1
:104590004161704780B540F2780EC2F2000EDEF83D
:1045A000141019B10121CEF8301080BD0021CEF8D1
:1045B0003010DEF8241040F2E87C01EB8102C2F2F8
:1045C000000C5CF82230002B0CEB82030CD05868F6
:1045D000426803F1080082425A6023D0D068CEF8C6
:1045E0000000CEF8241080BD283B19B35A6901EBB6
:1045F0008100002A0CEB800226D101291AD018680C
:1046000030BB022916D053F8140C28BB032911D053
:1046100053F8280C04390028A3F15003E5D02833BF
:10462000D5E700BF52685A60D068CEF80000CEF8D7
:10463000241080BD4FF0500080F31188BFF36F8FBE
:10464000BFF34F8FFEE700BFA2F114030139BEE7AD
:10465000A2F128030239BAE7A2F13C030339B6E715
:10466000B0B584B04EF2004CCEF2000C9CF80010B5
:104670000291FF218CF800109CF800108DF80710B3
:104680009DF8071001F0500240F24C11C2F20001F7
:104690000A7007224A609DF90720B2F1FF3F61DCF2
:1046A000032200BFD31C4B609DF8070040008DF82B
:1046B00007009DF90700B0F1FF3F24DC931C4B601D
:1046C0009DF8070040008DF807009DF90700B0F144
:1046D000FF3F18DC531C4B609DF8070040008DF82D
:1046E00007009DF90700B0F1FF3F0CDC4A609DF820
:1046F0000700043A40008DF807009DF90700B0F16B
:10470000FF3FCFDD131D032B2CD14FF440704860C9
:1047100002988CF80000DCF8200940F47000CCF816
:104720002009DCF8200940F07040CCF82009FFF7A0
:10473000E1FC40F20C04C2F2000400252560FFF702
:104740007BF8FFF727FF039520684FF0500181F3B6
:104750001188BFF36F8FBFF34F8F013012D000BFAE
:10476000FEE700BF4FF0500080F31188BFF36F8F5A
:10477000BFF34F8FFEE700BF039830B9039820B90D
:10478000039810B903980028F6D0002004B0B0BDFB
:1047900080B54FF0500080F31188BFF36F8FBFF3E7
:1047A0004F8F00F0D5FB30B14EF60450CEF2000032
:1047B0004FF080510160002080F3118880BD00001F
:1047C00070B582B060B1ABB1F1B9EAB14FF0500051
:1047D00080F31188BFF36F8FBFF34F8FFEE700BFE9
:1047E0004FF0500080F31188BFF36F8FBFF34F8FEE
:1047F000FEE700BF4FF0500080F31188BFF36F8FCA
:10480000BFF34F8FFEE700BF51B14AB94FF05000E0
:1048100080F31188BFF36F8FBFF34F8FFEE700BFA8
:1048200050250195019D502D2ED1019C069E0124FD
:1048300083F84640002908BF1A461A60C3E90F01F1
:104840001C46FFF7B1FB2068D4E90F12002502FBDC
:104850000103013901FB0201A563C4E90103FF2043
:10486000E16084F8440084F8450004F11000FFF78B
:104870004BFB04F12400FFF747FBFFF7B9FB204691
:1048800084F84C6002B070BD4FF0500080F3118886
:10489000BFF36F8FBFF34F8FFEE700002DE9F04F9E
:1048A00083B00292C0B11D460446F9B1022D02D177
:1048B000E06B01285CD116460F4600F029FB18BBBF
:1048C00016B34FF0500080F31188BFF36F8FBFF322
:1048D0004F8F00BFFEE700BF4FF0500080F31188FC
:1048E000BFF36F8FBFF34F8FFEE700BF206C002830
:1048F000DCD04FF0500080F31188BFF36F8FBFF30F
:104900004F8F00BFFEE700BFFFF74EFBA06B022DED
:1049100065D0E16B884262D30298002800F01881CC
:104920006846FFF72DFDFFF763FBFFF72BFEFFF750
:104930003BFB94F84400FF2804BF002084F84400A7
:1049400094F84500FF2804BF002084F84500FFF7D5
:104950004FFB684602A900F021FA98B12046FFF704
:1049600059F900F0F9FB002003B0BDE8F08F00BF5B
:104970004FF0500080F31188BFF36F8FBFF34F8F5C
:10498000FEE700BF04F11008FFF70EFBD4F83890E3
:10499000E66BFFF72DFBB14516D102994046FFF7B4
:1049A00001FD2046FFF736F900F0D6FB88B94EF638
:1049B0000450CEF200004FF080510160BFF34F8FE2
:1049C000BFF36F8F05E000BF2046FFF723F900F02B
:1049D000C3FBFFF7E9FAA06BE16B884266D2A66BD6
:1049E000226CDAB139462DB3E068FBF703FCE168CD
:1049F000206C2268091A9142E16003D2A16840420A
:104A00000844E060A81EB0FA80F040093146002E4C
:104A100018BF01210840361A18E000BF2068A8B965
:104A2000A06800F017FB0021B0FA80F0A1604009F7
:104A30000DE000BF6068FBF7DDFBD4E90101226CEB
:104A400010448842606001D3206860600120711CBE
:104A5000A16354F8241FA9B1204600F043FB50B1D4
:104A60004EF60450CEF200004FF080510160BFF3CB
:104A70004F8FBFF36F8FFFF7BBFA012003B0BDE884
:104A8000F08F00BF0028F6D14EF60450CEF20000A1
:104A90004FF080510160BFF34F8FBFF36F8FFFF76F
:104AA000A7FA012003B0BDE8F08F00BFE94602AECF
:104AB0000CE000BF2046FFF7ADF800F04DFBFFF71C
:104AC00073FAA06BE16B8842FFF489AF029800286B
:104AD0003ED0FFF78DFAFFF755FDFFF765FA94F822
:104AE0004400FF2804BF002084F8440094F84500E7
:104AF000FF2804BF002084F84500FFF779FA4846F4
:104B0000314600F04BF900287FF428AFFFF74CFA4C
:104B1000D4F838A0D4F83CB0FFF76AFADA45C9D126
:104B200002994046FFF73EFC2046FFF773F800F07D
:104B300013FB0028C3D14EF60450CEF200004FF014
:104B400080510160BFF34F8FBFF36F8FB7E700BF96
:104B5000FFF74EFA002003B0BDE8F08F2DE9F04FCB
:104B600083B0029290B115460446002948D00E4603
:104B700000F0CEF9A0B99DB14FF0500080F311883C
:104B8000BFF36F8FBFF34F8FFEE700BF4FF05000B2
:104B900080F31188BFF36F8FBFF34F8FFEE700BF25
:104BA000FFF702FAD4F838A0BAF1000F36D0226C21
:104BB00052B1D4E9023130461144E160994224BF38
:104BC0002168E160FBF716FBAAF10100A06354F82D
:104BD000100F70B1204600F085FA50B14EF6045027
:104BE000CEF200004FF080510160BFF34F8FBFF352
:104BF0006F8F0124FFF7FCF9204603B0BDE8F08F6A
:104C0000206C0028B3D04FF0500080F31188BFF320
:104C10006F8FBFF34F8F00BFFEE700BF02980028E1
:104C200000F0B4806846FFF7ABFBFFF7E1F9FFF750
:104C3000A9FCFFF7B9F994F8440004F12408FF280F
:104C400004BF002084F8440094F84500FF2804BF06
:104C5000002084F84500FFF7CBF9684602A900F070
:104C60009DF878B12046FEF7D5FF00F075FAFFF702
:104C70009BF9A56BFFF7BCF92DBB0024204603B0C0
:104C8000BDE8F08FFFF790F9A56BFFF7B1F92DB1F3
:104C90002046FEF7BFFF00F05FFA14E0029940469D
:104CA000FFF780FB2046FEF7B5FF00F055FA50B93C
:104CB0004EF60450CEF200004FF080510160BFF379
:104CC0004F8FBFF36F8FFFF76FF9D4F838A0BAF1A9
:104CD000000F7FF46CAF4FF00009EB4602AF13E01A
:104CE0002046FEF797FF00F037FAFFF75DF9A56B56
:104CF000FFF77EF9002DC0D0FFF756F9D4F838A0A1
:104D0000BAF1000F7FF453AF029800283ED0FFF7AE
:104D10006FF9FFF737FCFFF747F994F84400FF28D5
:104D200008BF84F8449094F84500FF2808BF84F831
:104D30004590FFF75DF95846394600F02FF80028F6
:104D4000CED1FFF731F9A56BFFF752F935B1204607
:104D5000FEF760FF00F000FACEE700BF0299404680
:104D6000FFF720FB2046FEF755FF00F0F5F900287D
:104D7000C2D14EF60450CEF200004FF080510160D7
:104D8000BFF34F8FBFF36F8FB6E700BF0024FFF76D
:104D90002FF9204603B0BDE8F08F0000B0B548B34E
:104DA0000C4689B30546FFF7FFF840F2780CC2F2D3
:104DB000000CDCF818302268501C2FD0AE46686812
:104DC0002D68DCF83810A94201D083422ED2181A7F
:104DD000824229D9101A2060DCF838000024CEF86D
:104DE0000000DCF81800CEF80400FFF701F92046B7
:104DF000B0BD00BF4FF0500080F31188BFF36F8F3C
:104E0000BFF34F8FFEE700BF4FF0500080F31188D3
:104E1000BFF36F8FBFF34F8FFEE700BF0024FFF794
:104E2000E7F82046B0BD00BF002020600124FFF756
:104E3000DFF82046B0BD00002DE9F04184B0074600
:104E40009000984615460E46FEF71EFFF8B1044640
:104E50005C20FEF719FFB8B1DDE90A2100230463E5
:104E600080F85930CDE900210446384631462A46BB
:104E700043460294FEF75EFC2046FEF7D1FA01207D
:104E800004B0BDE8F08100BF2046FFF7C9F84FF03D
:104E9000FF3004B0BDE8F08170B586B00B9CCCB19A
:104EA0000C9E0EB35C250495049D5C2D26D1049DBB
:104EB000DDF828C0022586F8595005AD3463CDE9E8
:104EC00000C50296FEF736FC3046FEF7A9FA0598B3
:104ED00006B070BD4FF0500080F31188BFF36F8FA4
:104EE000BFF34F8FFEE700BF4FF0500080F31188F3
:104EF000BFF36F8FBFF34F8FFEE700BF4FF050003F
:104F000080F31188BFF36F8FBFF34F8FFEE7000070
:104F100040F27800C2F20000016900290FBF0120B1
:104F20004069B0FA80F0400918BF400070470000A7
:104F300040F27800C2F200008069704780B5FFF748
:104F4000F3F840F27800C2F20000806980BD0000F2
:104F50002DE9F04381B040F27806C2F20006706994
:104F600040B1706B002401307063204601B0BDE891
:104F7000F08300BFB06910F10109C6F8189020D382
:104F8000F069006850B14FF0500080F31188BFF312
:104F90006F8FBFF34F8F00BFFEE700BFF069316A2C
:104FA000F1613062B06B0130B063F069006828B124
:104FB000F069C068C068406802E000BF4FF0FF3091
:104FC000F062F06A40F2E8788145C2F2000801D24E
:104FD00000242EE0F0690024006813E0F86A716A8A
:104FE000884288BF706200EB800008EB8000294691
:104FF000FEF7CCFFF86A3168C96AF269884228BFB7
:105000000124106890B1F069C068C7683D4655F842
:10501000040F81450CD32846FEF748FFB86A0028E4
:10502000DCD007F11800FEF741FFD7E74FF0FF3063
:10503000F0623068C06A00EB800058F82000012858
:1050400088BF0124306B002818BF0124204601B01E
:10505000BDE8F08370B588B140F27805C2F2000572
:10506000296881420CD04FF0500080F31188BFF3C3
:105070006F8FBFF34F8F00BFFEE700BF002070BDF2
:10508000016D29B3013901654FF000011DD1C26ADC
:10509000C36C9A4219D0041D06462046FEF706FF4F
:1050A000F06CC0F13801F062B161696A884240F287
:1050B000E87188BF686200EB8000C2F2000101EB7A
:1050C00080002146FEF762FF0121084670BD00BF47
:1050D0004FF0500080F31188BFF36F8FBFF34F8FF5
:1050E000FEE7000070B5C068C5686DB105F1180431
:1050F0002046FEF7DBFE40F27806C2F20006706939
:1051000060B106F164001AE04FF0500080F311889E
:10511000BFF36F8FBFF34F8FFEE700BF2C1D2046FC
:10512000FEF7C4FEE86A716A884240F2E87188BFFF
:10513000706200EB8000C2F2000101EB80002146AA
:10514000FEF724FFE86A3168C96A884292BF0020EE
:105150000120306370BD00002DE9F04140F2780578
:10516000C2F20005686968B1FEF71EFF6869013880
:105170006861686980B10024FEF73AFF2046BDE807
:10518000F08100BF4FF0500080F31188BFF36F8FA4
:10519000BFF34F8FFEE700BFE8680028EBD0686ED2
:1051A00088B340F2E876C2F200064FF0010800BF73
:1051B000286FC76807F11800FEF778FE3C1D2046EF
:1051C000FEF774FEF86A696A884288BF686200EB7D
:1051D000800006EB80002146FEF7D8FEF86A2968B9
:1051E000C96A884228BFC5F83080686E0028DFD1C0
:1051F000E869006820B1E869C068C068406801E0FB
:105200004FF0FF30E8626C6B4CB10126FFF7A0FE57
:10521000002818BF2E63013CF8D100206863286B7A
:105220000028A8D04EF60450CEF200004FF0805176
:105230000160BFF34F8F0124BFF36F8FFEF7D8FEDD
:105240002046BDE8F081000070B586B0FEF7ACFEE8
:1052500040F2F006C2F20006306808BB06F1140402
:105260002046FEF751FE06F128052846FEF74CFEC3
:1052700040F2F86240F29873C6E902450025C2F296
:105280000002C2F200030A2010210095FFF798FAED
:10529000306028B145F67411C0F60001FEF774FFC6
:1052A000FEF7A6FE3068D8B10020CDE9040005A8BD
:1052B00004A903AAFEF71AFEDDE903200221059DD9
:1052C000CDE9001043F69900C0F6000009A10023C3
:1052D0000295FFF7E1FD706010B1012006B070BDCE
:1052E0004FF0500080F31188BFF36F8FBFF34F8FE3
:1052F000FEE700BF546D722053766300000000008B
:105300000000000001020304060708090000000075
:105310000102030401020000000000000000000080
:10532000000000000000000000F800000000000085
:1053300000330000000000100C02100C02000000FE
:105340000000000000000040C07840C07800000469
:105350003F04043F040000708888FC0830000018F7
:105360002020FF211E00F008F080601800000031AE
:105370000C031E211E0000F00888700000001E2192
:10538000232C1927211000120E000000000000003D
:10539000000000000000000000E01804020000000F
:1053A00000071820400000020418E0000000004040
:1053B000201807000000404080F0804040000202BA
:1053C000010F0102020000000000E00000000001E7
:1053D00001010F0101010000000000000000009029
:1053E000700000000000000000000000000000014C
:1053F0000101010101000000000000000000003078
:1054000030000000000000000000C0380400006010
:1054100018070000000000E010080810E000000F6E
:10542000102020100F0000001010F80000000000F5
:1054300020203F202000007008080808F0000030FD
:105440002824222130000030080808887000001845
:10545000202121221C000000804030F800000006BE
:105460000524243F242400F88888880808000019AF
:10547000202020110E0000E0108888900000000F0E
:10548000112020201F00001808088868180000005C
:10549000003E010000000070880808887000001CB1
:1054A000222121221C0000F008080810E000000161
:1054B000122222110F00000000C0C00000000000F6
:1054C00000303000000000000080000000000000FC
:1054D00000E00000000000008040201008000001F3
:1054E00002040810200000404040404040000002FC
:1054F000020202020200000810204080000000208A
:1055000010080402010000704808088870000000BC
:10551000003037000000C030C828E810E00007184D
:1055200027282F2817000000C038E0000000203C8A
:1055300023020227382008F8888888700000203F5E
:10554000202020110E00C030080808083800071875
:1055500020202010080008F808080810E000203F6C
:10556000202020100F0008F88888E8081000203F4D
:1055700020202320180008F88888E8081000203F21
:10558000200003000000C030080808380000071899
:105590002020221E020008F808000008F808203F1A
:1055A000210101213F20000808F808080000002020
:1055B000203F2020000000000808F8080800C080F4
:1055C00080807F00000008F888C028180800203F6D
:1055D00020012638200008F8080000000000203FC5
:1055E00020202020300008F8F800F8F80800203FBC
:1055F000013E013F200008F830C00008F808203FB5
:10560000200007183F00E01008080810E0000F1005
:10561000202020100F0008F808080808F000203F9C
:10562000210101010000E01008080810E0000F103F
:10563000282830504F0008F8888888887000203F5C
:105640002000030C3020007088080808380000385B
:10565000202121221C00180808F808081800000062
:10566000203F2000000008F808000008F808001F8C
:10567000202020201F000878880000C8380800007B
:1056800007380E01000008F800F800F808000003D1
:105690003E013E030000081868808068180820302A
:1056A0002C03032C30200838C800C838080000003C
:1056B000203F2000000010080808C83808002038E3
:1056C000262120201800000000FE02020200000037
:1056D000007F40404000000438C00000000000008F
:1056E00000010638C00000020202FE000000004077
:1056F00040407F000000000004020204000000009F
:105700000000000000000000000000000000808099
:105710008080808080800002020400000000000081
:1057200000000000000000008080800000000019E0
:105730002424123F200010F0008080000000003F71
:10574000112020110E000000008080800000000E5B
:10575000112020201100000080808090F000001FA8
:10576000202020103F200000808080800000001F4B
:10577000242424241700008080E090902000002042
:10578000203F202000000000808080808000006B8F
:1057900094949493600010F0008080800000203F7B
:1057A000210000203F200080989800000000002089
:1057B000203F20200000000000809898000000C0DA
:1057C0008080807F000010F0000080808000203FFB
:1057D000240629302000001010F8000000000020EE
:1057E000203F202000008080808080808000203F3B
:1057F00020003F20003F8080008080800000203F0C
:10580000210000203F200000808080800000001FD9
:10581000202020201F00808000808000000080FF6A
:10582000912020110E000000008080008000000EFA
:1058300011202091FF8080808000808080002020C7
:105840003F21200001000000808080808000003324
:10585000242424241900008080E0808000000000BF
:10586000001F202010008080000000808000001FAA
:10587000202020103F208080800080808000000356
:105880000C300C0300008080008080008080010EBE
:10589000300C0738060100808080008080000020E6
:1058A000310E2E31200080808000008080800081B9
:1058B00086781806010000808080808080000021AA
:1058C000302C222130000000000000FC0202000009
:1058D0000000013E404000000000FF00000000000A
:1058E0000000FF0000000202FC0000000000404039
:1058F0003E0100000000000201020204020000005C
:1059000000000000000000006059000800000000D6
:105910000000000000000000000000000002000085
:105920002800000000000000000000000203040541
:10593000060708090A0B0C0D0E0F10106859000815
:105940000000000000000000000000000000000057
:10595000000200001800000000000000000000002D
:1059600055495F5461736B0064656661756C74546E
:1059700061736B00546D725100000000A059000863
:10598000000000201000000050010008B05900087D
:105990001000002038250000700100080000000001
:1059A000010000001000000000127A00AAAAAAAAB2
:04000005080000ED02
:00000001FF
